:0200000480007A
:10000000130101FF232611002324810013040101A1
:1000100093810100138101A2EF00C004EF004009A9
:10002000EF00402B6F000000130000008320C10090
:10003000032481001301010167800000130101FF07
:10004000232611002324810013040101EF00403C0A
:10005000130000008320C10003248100130101016B
:1000600067800000130101FE232E810013040102AA
:10007000938781802326F4FE938741812324F4FE15
:100080006F0040018327C4FE138747002326E4FE48
:1000900023A007000327C4FE832784FEE314F7FE92
:1000A000130000000324C101130101026780000056
:1000B000130101FE232E1100232C810013040102E1
:1000C000B70700809387C7482326F4FEB707008050
:1000D000938707492324F4FE6F0000028327C4FEA0
:1000E000138747002326E4FE83A707002322F4FE9C
:1000F000832744FEE78007000327C4FE832784FE8E
:10010000E31EF7FC130000008320C10103248101DA
:080110001301010267800000E9
:10011800130101FE232E8100130401022326A4FEED
:100128008327C4FE23A007008327C4FE23A4070057
:10013800130000000324C1011301010267800000BD
:10014800130101FE232E8100130401022326A4FEBD
:10015800130000000324C10113010102678000009D
:10016800130101FE232E8100130401022326A4FE9D
:100178008327C4FE23A207008327C4FE1307F0FFCA
:1001880023A0E700130000000324C10113010102AA
:1001980067800000130101FE232E81001304010271
:1001A8002326A4FE8327C4FE83A7470093D707010D
:1001B80093F7F70F138507000324C1011301010208
:1001C80067800000130101FE232E81001304010241
:1001D8002326A4FE8327C4FE83A7470093D787015D
:1001E800138507000324C101130101026780000081
:1001F800130101FE232E1100232C81001304010298
:100208002326A4FE2324B4FE130000000325C4FE05
:10021800EFF05FF893070500E38A07FE8327C4FE23
:10022800032784FE23A0E700130000008320C101F8
:10023800032481011301010267800000130101FEFC
:10024800232E8100130401022326A4FE2324B4FED6
:10025800832784FE03A7C7008327C4FE23A4E700DF
:10026800832784FE83A707001387F7FF832784FE6D
:1002780083A74700939787003367F700832784FE97
:1002880083A78700939707013367F7008327C4FE86
:1002980023A6E700130000000324C1011301010293
:1002A80067800000130101FF232681001304010168
:1002B80083A7C1801387370023A6E18013000000BD
:1002C8000324C1001301010167800000130101FE2E
:1002D800232E1100232C810013040102B70702F01A
:1002E80013850701EFF0DFE7370502F0EFF05FE570
:1002F800B70702F013850704EFF09FE1B70702F094
:10030800373700001307F7ED23A0E700B70702F01F
:10031800938707041307703E23A2E700B70702F08C
:1003280093870704370701001307270023A0E70076
:10033800B70702F0938707011307F00023A0E7002F
:10034800B70702F0938707011307100023A2E700FD
:10035800B70700F01307F00F23A4E700B70700F072
:1003680023A20700B70701F01307200023A2E70024
:10037800B70701F01307100423A0E700232604FEA3
:100388001307100023A8E1801307200023A4E180AD
:1003980083A701810327C4FEB307F7002326F4FED1
:1003A80003A7818083A7C180B307F7000327C4FE92
:1003B800B307F7002326F4FE232404FE6F00000190
:1003C800832784FE938717002324F4FE032784FEE3
:1003D800B7C700009387F734E3F4E7FEB70700F0E8
:1003E80083A7470093F607FCB70700F083A74700E9
:1003F8009387170013F7F703B70700F033E7E60012
:1004080023A2E7006FF0DFF8130101FF2326810024
:1004180013040101B70702F09387070183A70700B8
:1004280093F7170063800704B70700F003A7470096
:10043800B70700F01347070823A2E700B70702F041
:10044800938707011307100023A0E7006F008001BE
:10045800B70701F003A70700B70701F01377F70FF5
:1004680023A0E700B70701F083A7470093F7072009
:10047800E39007FE130000000324C10013010101EB
:040488006780000089
:04048C00AC0200803E
:08049000000000803C00008028
:040000058000000077
:00000001FF
