:020000044000BA
:10000000B70701F01307500323A4E700130770009C
:1000100023A6E70067800000B70702F023AA0700C5
:100020001307F0FF23A8E70067800000B70702F07E
:1000300023A0070423A40704678000006780000052
:10004000B70702F003A587046780000003C7518348
:10005000930710046304F7006780000083270500FE
:1000600003A7C18393879700B387E7402320F50058
:100070006780000003A6418463080600032706008A
:100080002320E50003A6418483A5C1831306C6008F
:100090001305A0006F00100F130101FF23202101A1
:1000A00083A74184232481000324050003A70700BC
:1000B0002322910083AE470003AE870003A307010C
:1000C00083A8470103A8870183A5070203A6470267
:1000D00083A68702232611009304050003A5C70108
:1000E00083A7C7022320E40003A70400232EA40053
:1000F0002326F4022322D401930750002324C401B1
:1001000023286400232A1401232C04012320B40291
:100110002322C4022324D40223A6F4002326F400BD
:100120002320E40013050400EFF0DFF483274400EC
:100130006380070883A704008320C1000324810093
:1001400083AF070003AF470083AE870003AEC7004D
:1001500003A3070183A8470103A8870183A5C7015B
:1001600003A6070283A6470203A7870283A7C70245
:1001700023A0F40123A2E40123A4D40123A6C401F3
:1001800023A8640023AA140123AC040123AEB40005
:1001900023A0C40223A2D40223A4E40223A6F402CF
:1001A000032901008324410013010101678000003D
:1001B00003A5840093076000930584002326F400C0
:1001C000EF00500C83A741840325C4001306C4002C
:1001D00083A707008320C100832441002320F4006B
:1001E00003248100032901009305A00013010101EC
:1001F0006F00407983C7518383A681839387F7FB80
:1002000093B71700B3E7D70023ACF182130720049C
:10021000238AE1826780000013071004A38AE18229
:1002200023AC018267800000130101F6130500036F
:10023000232E1108232C8108232A91072326B10796
:10024000232A91082328210923263109232441093F
:100250002322510923206109232E7107232C8107B2
:100260002328A107EF00901E23A0A18413050003FB
:10027000EF00D01D83A7018423A2A1842320F500D1
:10028000930720002324F500B73500409307800230
:100290002326F5001306F001938585CA2322050065
:1002A00013050501EF00903237370040930707210F
:1002B000032E072103A3470083A8870003A8C700D4
:1002C00083A5070103A6470183A6870103D7C701BA
:1002D00083C7E701B73D0040231EE102230FF1026F
:1002E00013874D579307A0001305A000232EF76432
:1002F0002320C103232261022324110323260103A7
:100300002328B102232AC102232CD102EF00D007F7
:1003100037350040130585CCEF0010271305A000EA
:10032000EF00900683A70183638A0760373500409A
:10033000130585CFEF0050251305A000EF00D00472
:1003400037350040130545D5EF00D0121305A00046
:10035000EF009003373500409305800C1305C5D896
:10036000EF005011EFF0DFCD373400408327042336
:10037000373D0040032C0D252326F10023A6A18242
:10038000930910001304042393042000EFF0DFE826
:10039000EFF05FE68347E40103264401032E4400A7
:1003A000032384008328C4000328040183268401D6
:1003B0000357C401832EC100230FF10493050104E8
:1003C0009307100013050102232AC104232EF10014
:1003D000232A91002320D1052322C105232461046F
:1003E0002326110523280105232CD104231EE10413
:1003F000EF008062032641011335150023ACA18272
:1004000063CAC40293172600B387C7009387D7FF38
:10041000130506009305300013068101232CF1001B
:10042000EF0040560326410113061600232AC1009F
:10043000E3DAC4FC832681011385C18493854D577B
:10044000EF00405503A54184930A1004130A3000BD
:10045000EFF09FC403C7418393070004130B0D25DE
:1004600063F4E70213850A0093053004EF00C058D7
:100470008327C10113871A00630CF54483C74183A6
:10048000937AF70FE3F057FF83274101032B810194
:1004900013054101330AFA0293891900B34A6A032A
:1004A000232A5101EFF09FBA9307900CE390F9EEE5
:1004B000EFF01FB923A4A182373500401305C5DB37
:1004C000EF00900C1305A000EF00006C37350040E2
:1004D0001305C5DCEF00500B1305A000EF00C06A48
:1004E00083A5C18337350040130545E0373400400C
:1004F000EF00407893055000130504E2EF00807789
:1005000083A58183373500401305C5E3EF0080766E
:1005100093051000130504E2EF00C07583C55183F5
:1005200037350040130585E5EF00C074B73400404F
:1005300093051004138544E7EF00C07383C541831E
:1005400037350040130505E9EF00C072930520041C
:10055000138544E7EF0000729387C18483A50702E7
:10056000373500401305C5EAEF00C07093057000F1
:10057000130504E2EF000070B73700409387475738
:1005800083A5C76537350040130585ECEF00806E05
:1005900037350040130545EEEF00007F373500404A
:1005A000130505F1EF00407E03A74184B7370040F3
:1005B0001385C7F1832507002326F100373D00404E
:1005C000EF00406B37350040130585F3EF00C07B2B
:1005D00003A7418413058DF6373C0040832547006F
:1005E000B73B0040B7390040EF00C06893050000FA
:1005F000130504E2EF00006803A7418413054CF8DB
:100600003739004083258700330A6A41EF0080664E
:1006100093052000130504E2EF00C06503A74184A1
:1006200013850BFA8325C700EF00C0649305100102
:10063000130504E2EF00006483A541841385C9FB20
:1006400093850501EF000063130589FDEF00C0737A
:10065000373500401305C500EF00007303A7018480
:100660008327C100832507001385C7F1EF00806051
:10067000373500401305C501EF00007183A70184E1
:1006800013058DF683A54700EF00C05E93050000BB
:10069000130504E2EF00005E83A7018413054CF804
:1006A00083A58700EF00005D93051000130504E2A9
:1006B000EF00405C83A7018413850BFA83A5C70074
:1006C000EF00405B93052001130504E2EF00805A20
:1006D00083A501841385C9FB93850501EF0080592B
:1006E000130589FDEF00406A83254101373500403D
:1006F0001305C505EF00005893055000130504E2EB
:10070000EF00405793173A00338A4741373500408E
:10071000B3055A4113058507EF00C0559305D00076
:10072000130504E2EF0000558325810137350040B1
:1007300013054509EF00005493057000130504E20A
:10074000EF0040538325C101373500401305050BE9
:10075000EF00405293051000130504E2EF008051B2
:1007600037350040930501021305C50CEF0080509A
:10077000373500401305850EEF0000613735004026
:10078000930501041305C511EF00C04E3735004035
:1007900013058513EF00405F1305A000EF00C03E76
:1007A00003A7C18283A581829307301FB385E540EB
:1007B00023A2B18263D0B71A373500401305451C18
:1007C000EF00404B03A54182EF2000071304050012
:1007D000EF20C018B737004003A6074683A6474658
:1007E000EF001073B737004003A6874683A6C746BD
:1007F000EF001004EF20402723A0A182B73700406C
:1008000003A5074793050400EF10404E23AEA180D7
:10081000373500401305851DEF00C04503A5418213
:10082000EF208001B73700409305050003A5474737
:10083000EF10C04B13040500EF101079930405006E
:10084000EF10907F9305050013050400EF10503062
:10085000B737004083A58747EF10407DEF10D07673
:1008600013040500373500409385040013058520E7
:10087000EF0040409307900063D087103735004069
:10088000930504001305C520EF00C03E1305A0002A
:10089000EF00802F8320C1090324810983244109AB
:1008A000032901098329C108032A8108832A4108F1
:1008B000032B0108832BC107032C8107832C4107DD
:1008C000032D0107832DC1061301010A6780000073
:1008D0009305C10113050000EF00C01A03234B006C
:1008E00083288B000328CB0003250B0183254B01B4
:1008F00003268B018356CB010347EB0183C741835A
:10090000938A1A00232081052322610423241105E0
:10091000232601052328A104232AB104232CC10482
:10092000231ED104230FE10423AE318393FAFA0F7F
:10093000138A0900E3F857B36FF01FB5373500404D
:10094000130545D2EF0040441305A000EF00C0237B
:100950006FF01F9F373500401305C516EF00C042EA
:10096000373500401305451AEF0000421305A0007B
:10097000EF0080216FF01FF213050003EF00C0208D
:100980006FF0DFEF13052500B305B5002320B60097
:1009900067800000130756001308800C3308070314
:1009A00013162600931727003305F5002320D500E2
:1009B000232CE5062322D500B307C800B387F50032
:1009C00083A6070123AAE70023ACE70013871600DC
:1009D00023A8E70083270500B3850501B385C5007B
:1009E00037160000B305B60023AAF5FA1307500026
:1009F00023AEE182678000001375F50F93F5F50FC4
:100A00006306B5001305000067800000A38AA18279
:100A10001305100067800000130101FF23248100EB
:100A2000232291002326110013040500938405005E
:100A300083C5340003452400EFF01FFCE31A05FED4
:100A40009385040013050400EF00C04693070000DF
:100A50006358A0001307A00023AEE18293071000A3
:100A60008320C100032481008324410013850700F3
:100A700013010101678000001305E5FF1335150020
:100A800067800000130101FF2324810023229100CD
:100A9000232611001304050093840500EFF0DFFD09
:100AA000630E050223A08400930710006300F40482
:100AB0006304040413072000630CE404930740005C
:100AC0006314F40023A0E4008320C1000324810008
:100AD0008324410013010101678000009307300067
:100AE00023A0F40093071000E314F4FC03A7C183D0
:100AF0009307400663DAE7028320C10003248100E4
:100B000023A0040083244100130101016780000039
:100B10008320C1000324810023A0F400832441002A
:100B200013010101678000008320C10003248100BC
:100B30009307300023A0F400832441001301010136
:100B400067800000B70701F003A5470013550501B2
:100B50001375F50F67800000130101FF2324810046
:100B60002326110013040500EFF0DFFDE30E05FE60
:100B7000B70701F023A087008320C1000324810070
:100B800013010101678000006FF01FFD130101FFD9
:100B900023248100232611001304050003450500CA
:100BA000630A050013041400EFF01FFE0345040060
:100BB000E31A05FE8320C100032481001301010113
:100BC000678000001375F50F6FF01FFC130101FD26
:100BD00023229102232611022324810223202103B0
:100BE00093040500634C0504130901001304090074
:100BF0001307A00063940400631E2401B3E7E4021A
:100C00001304140093870703B3C4E402A30FF4FE94
:100C10006FF05FFE1304F4FF03450400EFF09FFA4A
:100C2000E31A24FF8320C1020324810283244102AA
:100C30000329010213010103678000001305D0029C
:100C4000EFF05FF8B30490406FF01FFA03A78184C0
:100C5000B307A7003765004023A4F184130545C8F6
:100C6000930600403305E50063D4F60073001000DE
:100C700067800000130101FB232C41012326110290
:100C8000232481022322910223202103232E3101D8
:100C9000232A5101130A0500034505002322F1040C
:100CA00093074103232AB102232CC102232ED10230
:100CB0002320E10423240105232611052326F10026
:100CC0006308050213040000930A500293043006DF
:100CD0001309300793094006630E5503EFF09FEEAA
:100CE00013041400B3078A0003C50700E31605FECA
:100CF0008320C102032481028324410203290102CB
:100D00008329C101032A8101832A410113010105BD
:100D100067800000930614003307DA006F000001BB
:100D2000638C270363863705938616008347070085
:100D30001384060013071700E38407FAE39297FE73
:100D40008327C10003A50700938747002326F100EE
:100D5000EFF05FE76FF0DFF88327C10003A507001E
:100D6000938747002326F100EFF05FE26FF05FF713
:100D70008327C10003A50700938747002326F100BE
:100D8000EFF0DFE46FF0DFF5130101FF23248100B2
:100D9000232611001304050003450500630A05001E
:100DA00013041400EFF05FDE03450400E31A05FEB0
:100DB0001305A000EFF05FDD8320C1000324810054
:100DC000130500001301010167800000B3C7A500EF
:100DD00093F737003307C500639607009307300089
:100DE00063E4C70293070500636CE50067800000B9
:100DF00083C605009387170093851500A38FD7FE40
:100E0000E3E8E7FE67800000937735006392070808
:100E1000930705009376C7FF138606FE63F6C7089F
:100E200083A3050083A2450083AF850003AFC500FF
:100E300083AE050103AE450103A3850183A8C50167
:100E4000938545029387470203A8C5FF23AE77FC2D
:100E500023A057FE23A2F7FF23A4E7FF23A6D7FF73
:100E600023A8C7FF23AA67FE23AC17FF23AE07FF03
:100E70006FF0DFFA83C6050093871700938515008E
:100E8000A38FD7FE93F63700E39606FE6FF09FF828
:100E9000930705006FF01FFF03A605009387470027
:100EA0009385450023AEC7FEE3E8D7FEE3EAE7F407
:100EB000678000003367B5009303F0FF13773700B6
:100EC00063100710B7877F7F9387F7F70326050026
:100ED00083A60500B372F6003363F600B382F20016
:100EE000B3E26200639272106316D60803264500CF
:100EF00083A64500B372F6003363F600B382F200B6
:100F0000B3E26200639E720C6316D6060326850068
:100F100083A68500B372F6003363F600B382F20055
:100F2000B3E262006398720C6316D6040326C50010
:100F300083A6C500B372F6003363F600B382F200F5
:100F4000B3E262006392720C6316D60203260501B7
:100F500083A60501B372F6003363F600B382F20094
:100F6000B3E26200639C720A130545019385450153
:100F7000E30ED6F41317060193970601631EF700DC
:100F80001357060193D706013305F7409375F50F04
:100F900063900502678000001357070193D707018C
:100FA0003305F7409375F50F6394050067800000E3
:100FB0001377F70F93F7F70F3305F74067800000BB
:100FC0000346050083C6050013051500938515002B
:100FD0006314D600E31606FE3305D6406780000092
:100FE0001305450093854500E31CD6FC130500005E
:100FF000678000001305850093858500E312D6FC09
:1010000013050000678000001305C5009385C50027
:10101000E318D6FA130500006780000013050501E8
:1010200093850501E31ED6F81305000067800000D4
:10103000130101FD2324810223229102232861014F
:1010400013040500130B0500B704100013D5450168
:1010500023202103232E3101232671019384F4FFE1
:1010600023261102232C4101232A51011375F57FF8
:10107000930B060093890600B3F4B40013D9F5016D
:101080006306050A9307F07F6306F5109394340016
:10109000B7068000B3E4D400935ADB01B3EA9A00A8
:1010A00013143B00130A15C0130B000013D549019C
:1010B000B70410009384F4FF1375F57FB3F4340183
:1010C000938F0B0093D9F901630205109307F07F0A
:1010D0006302F516B707800093943400B3E4F4007C
:1010E00093D7DB01B3E79700939F3B00130515C02F
:1010F0001307000093162B00B3E6E6009386F6FF75
:101100009305E000334639013305AA4063E0D51664
:10111000972500009385051693962600B386B600A2
:1011200083A60600B386B60067800600B3EA6401B2
:10113000638E0A066380040413850400EF10502CAC
:10114000930755FF1307C001634EF702930AD001BE
:10115000130485FFB38AFA40B3948400B35A5B0149
:10116000B3EA9A0033148B00130AD0C0330AAA40A2
:101170006FF09FF313050B00EF1090281305050285
:101180006FF01FFC930485FDB31A9B00130400004D
:101190006FF09FFDB3EA640163820A02938A040040
:1011A000130AF07F130B30006FF05FF013040000A0
:1011B000130A0000130B10006FF05FEF1304000020
:1011C000130AF07F130B20006FF05FEEB3E774019A
:1011D000638E07066380040413850400EF10502219
:1011E000130755FF9307C00163CEE7029307D001B1
:1011F000930F85FFB387E740B394F401B3D7FB00A7
:10120000B3E79700B39FFB011306D0C03305A64098
:101210006FF01FEE13850B00EF10901E13050502F3
:101220006FF01FFC930785FDB397FB00930F000041
:101230006FF09FFDB3E77401638207029387040098
:101240001305F07F130730006FF0DFEA930F000003
:1012500013050000130710006FF0DFE9930F000083
:101260001305F07F130720006FF0DFE863E65701F6
:101270006390FA36636EF4359395FA019356140031
:101280001317F40193DA1A0033E4D500939787001B
:1012900013D88F013368F800935E0801B3D5DA03E1
:1012A000131E0801135E0E019356040193988F00DC
:1012B000B3F4DA03938F0500B307BE0293940401DD
:1012C000B3E6960063FEF600B3860601938FF5FF42
:1012D00063E8060163F6F600938FE5FFB386060127
:1012E000B386F64033D3D603131404011354040118
:1012F000B3F6D60393070300B3056E029396060177
:10130000B366D40063FEB600B38606019307F3FF0D
:1013100063E8060163F6B6009307E3FFB3860601B0
:101320003384B640939F0F01B7050100B3EFFF0070
:101330001383F5FF93D60F01B3F76F0013DF080196
:1013400033F36800B3836702B3846602B307FF0216
:10135000B382E603B386970093D70301B387D70020
:1013600063F49700B382B20093D60701B3865600A8
:10137000B70201009382F2FFB3F557009395050180
:10138000B3F35300B38575006368D40093870F00EF
:101390006314D4046372B70433071701B33217011F
:1013A000B3820201330454009387FFFF6366880011
:1013B00063148802636217036366D400639E860029
:1013C000637CB700330717019387EFFFB33F170123
:1013D000B38F0F013304F401B305B7403304D44095
:1013E0003337B7003304E440930FF0FF63048812EF
:1013F000B352D40393D605013374D4031387020088
:10140000B30F5E021314040133E48600637EF4011B
:10141000330404011387F2FF636804016376F40167
:101420001387E2FF330404013304F441B356D403B9
:101430009395050193D505013374D403330EDE0271
:101440001314040133E4850093850600637EC40110
:10145000330404019385F6FF636804016376C401D5
:101460009385E6FF3304040113170701B365B70042
:1014700013970501135707013304C44113DE050117
:10148000B30E670233036E02330ECF03330FEF0246
:1014900013D70E01330F6F003307E7016376670040
:1014A000B7060100330EDE00135307013303C301F7
:1014B000370E0100130EFEFFB376C70193960601A7
:1014C000B3FECE01B386D60163686400938F050036
:1014D000631064046380060433048800938FF5FF6F
:1014E00063640403636664006314640263F0D802F7
:1014F00013971800B338170133880801938FE5FF5D
:101500003304040193080700631464006384160124
:1015100093EF1F009306F53F635AD01013F77F0037
:101520006300070213F7FF0093054000630AB7004A
:1015300093854F00B3BFF501B387F701938F050083
:1015400013977700635A0700370700FF1307F7FF69
:10155000B3F7E700930605401307E07F634AD71807
:101560001397D70193DF3F003367F70193D7370015
:10157000B70510009385F5FFB3F7B700B7051080E6
:101580009385F5FF93F6F67F93964601B3F7B70080
:101590008320C102032481021316F601B3E7D700AA
:1015A000B3E6C70083244102032901028329C10154
:1015B000032A8101832A4101032B0101832BC100EE
:1015C00013050700938506001301010367800000DF
:1015D0001305F5FF130700006FF05FCB130609003A
:1015E00093870A00930F040013070B009306200053
:1015F0006300D710930630006302D70E93061000E5
:10160000E31AD7F093070000130700006F004009AA
:10161000138609006FF09FFDB7070800930F0000C5
:1016200013060000130730006FF05FFC93051000F5
:10163000B385D54013078003E346B7FC1307F001D9
:101640006344B7061305E5413397A700B3D6BF003F
:101650003395AF003367D7003335A0003367A70059
:10166000B3D7B70093767700638006029376F700CE
:1016700093054000638AB6009306470033B7E6003F
:10168000B387E700138706009396870063CA0606B0
:101690009396D7011357370033E7E60093D7370007
:1016A000930600006FF0DFEC130710FE3307D740FE
:1016B0001308000233D7E700930600006386050194
:1016C0001305E543B396A70033E5F6013335A000D3
:1016D0003367A700930700006FF0DFF8B707080033
:1016E000130700009306F07F130600006FF05FE819
:1016F00093070000130700009306F07F6FF05FE789
:101700009307000013070000930610006FF05FE6D8
:10171000130101FD23202103232A51013709100061
:1017200093DA4501232E3101232C41012328610145
:10173000232671011309F9FF2326110223248102B4
:101740002322910293FAFA7F130B0500930B0600F4
:10175000138A06003379B90093D9F50163880A0A20
:101760009307F07F6386FA1037048000131939005D
:10177000336989001354D50133642401931435006F
:10178000938A1AC0130B000013554A013709100041
:101790001309F9FF1375F57F3379490113870B009E
:1017A000135AFA01630405109307F07F6304F516DA
:1017B000B7078000131939003369F90093D7DB01AB
:1017C000B3E7270113973B00130515C093060000EC
:1017D00093152B00B3E5D5003385AA009385F5FF5B
:1017E0009308E00033C649011308150063E0B816FA
:1017F000172500001305C5AB93952500B385A500FB
:1018000083A50500B385A500678005003364A900A2
:10181000630E04066300090413050900EF10403E3F
:10182000930755FF1307C001634CF7021304D0015F
:10183000930485FF3304F4403319990033548B002B
:1018400033642401B3149B00930AD0C0B38AAA4026
:101850006FF05FF3EF10C03A130505026FF05FFC05
:10186000130485FD33148B00930400006FF0DFFD3B
:101870003364A900630404029304050013040900FF
:10188000930AF07F130B30006FF01FF093040000F9
:10189000930A0000130B10006FF01FEF9304000079
:1018A000930AF07F130B20006FF01FEEB3677901EE
:1018B000638E07066300090413050900EF10403426
:1018C000930655FF9307C00163CED7029307D0015B
:1018D000130785FFB387D7403319E900B3D7FB005F
:1018E000B3E727013397EB009306D0C03385A640BA
:1018F0006FF0DFED13850B00EF108030130505024C
:101900006FF01FFC930785FDB397FB0013070000E2
:101910006FF09FFDB36779016382070293070900A7
:101920001305F07F930630006FF09FEA1307000065
:1019300013050000930610006FF09FE913070000E5
:101940001305F07F930620006FF09FE8B70F0100AA
:10195000138FFFFF93D6040113530701B3F4E4017F
:101960003377E701B3089302B3059702B382E60227
:10197000338E580093D80501B388C801B38E660230
:1019800063F45800B38EFE0113D90801B3F8E801DF
:1019900093DF0701B3F5E501B3F3E701939808017D
:1019A000B388B800B3877602B3859302B3849F02ED
:1019B000338EF40093D40501B384C401B386F603D7
:1019C00063F6F400B7070100B386F60013DF0401E5
:1019D000B7090100330FDF009386F9FFB3F4D40099
:1019E000B3F5D50093570401939404013374D400E4
:1019F000B384B400B306870233099900338EE7023B
:101A0000B30583023307F3023383C50193D506017F
:101A1000B385650063F4C5013307370113D30501AE
:101A2000B7090100B302E3001387F9FFB3F5E5003E
:101A3000B3F6E6003383830293950501B385D500A1
:101A40003387770233848F02338EFF023304E4003E
:101A500093570301338487006374E400330E3E011F
:101A6000B70701009387F7FFB376F4003373F300F1
:101A700093960601B38E2E01B3866600B3B49E0022
:101A8000B386E601B3879600B38EBE00B3B5BE0041
:101A900033835700B30FB300B3B6E601B3B7970073
:101AA000B3E7F6001354040133335300B3B5BF005A
:101AB000B3878700B365B300B387B700B387C701A7
:101AC00013D77F0193979700B3E7E70013979E0022
:101AD000336717013337E00093DE7E0193969F0052
:101AE0003367D7013367D7009396770063DA061020
:101AF000935617001377170033E7E6009396F70124
:101B00003367D70093D717009305F83F635EB00E95
:101B100093767700638006029376F7001305400002
:101B2000638AA6009306470033B7E600B387E70051
:101B3000138706009396770063DA0600B70600FF66
:101B40009386F6FFB3F7D700930508409306E07F2E
:101B500063CEB616935637001397D7013367D70075
:101B600093D73700B70610009386F6FFB3F7D70078
:101B700093F6F57FB70510809385F5FF93964601A0
:101B8000B3F7B7008320C102032481021316F601C4
:101B9000B3E7D700B3E6C70083244102032901025B
:101BA0008329C101032A8101832A4101032B0101F9
:101BB000832BC10013050700938506001301010361
:101BC0006780000013860900930704001387040050
:101BD00093060B0093052000638AB60E9305300030
:101BE000638CB60C93051000E390B6F293070000E7
:101BF000130700006F00800813060A006FF09FFDB6
:101C0000130805006FF05FF0130510003305B540B1
:101C100093068003E3CCA6FC9306F00163C4A606FA
:101C20001308E841B3960701B355A700331707011E
:101C3000B3E6B6003337E00033E7E600B3D7A700DA
:101C400093767700638006029376F7009305400051
:101C5000638AB6009306470033B7E600B387E70010
:101C6000138706009396870063CA06069396D701EA
:101C70001357370033E7E60093D73700930500008A
:101C80006FF05FEE930610FEB386B6409308000235
:101C9000B3D6D70093050000630615011308E84387
:101CA000B395070133E7E5003337E00033E7E6009B
:101CB000930700006FF0DFF8B70708001307000074
:101CC0009305F07F130600006FF0DFE99307000033
:101CD000130700009305F07F6FF0DFE89307000023
:101CE00013070000930510006FF0DFE7130101FEFA
:101CF000232A91002326310193547501B7098000EE
:101D000023282101232441019389F9FF232E110067
:101D1000232C81002322510193F4F40F138A050030
:101D2000B3F9A9001359F501638804089307F00F6C
:101D30006384F40A93993900B7070004B3E9F90002
:101D4000938414F8930A000013557A013704800035
:101D50001304F4FF1375F50F33744401135AFA0199
:101D6000630C05089307F00F6308F50A1314340099
:101D7000B70700043364F400130515F89307000057
:101D800093962A00B3E6F6009386F6FF1307E00069
:101D9000334649013385A4406360D70A9715000094
:101DA0009385C55493962600B386B60003A7060014
:101DB0003307B70067000700638A0902138509002B
:101DC000EF0010649307B5FF9304A0F8B399F900EE
:101DD000B384A4406FF01FF79304F00F930A200020
:101DE000E38409F6930A30006FF01FF693040000B5
:101DF000930A10006FF05FF5630A040213050400F4
:101E0000EF0010609307B5FF3314F4009307A0F8B8
:101E10003385A7406FF09FF61305F00F930720005E
:101E2000E30004F6930730006FF09FF51305000000
:101E3000930710006FF0DFF41318540063F6890E57
:101E40001305F5FF930600001354080133D38902EC
:101E5000B70701009387F7FFB377F80093D6060121
:101E600033F7890293050300B3886702131707014C
:101E700033E7E600637E1701330707019305F3FF9D
:101E800063680701637617019305E3FF33070701D2
:101E900033071741B358870233778702B386170396
:101EA000931707011387080063FED700B387070164
:101EB0001387F8FF63E8070163F6D7001387E8FF8D
:101EC000B387070113940501B387D7403364E40057
:101ED000B337F0003364F4001307F5076350E00AEA
:101EE00093777400638A07009377F40093064000A9
:101EF0006384D700130444009317440063DA070097
:101F0000B70700F89387F7FF3374F4001307050849
:101F10009307E00F1354340063D2E70C130400005E
:101F20001307F00F6F00800B9396F90193D91900F6
:101F30006FF09FF1130609001384090093870A00CC
:101F400013072000E38CE7FC130730006382E708E7
:101F500013071000E392E7F81304000013070000D2
:101F60006F00C00713060A006FF09FFD37044000A2
:101F700013060000930730006FF09FFC93071000DA
:101F8000B387E7401307B001E348F7FC1305E50901
:101F9000B357F4003314A4003334800033E48700D3
:101FA00093777400638A07009377F4001307400067
:101FB0006384E7001304440093175400135434005F
:101FC000E3DE07F813040000130710006F000001A0
:101FD000370440001307F00F130600003705800098
:101FE0001305F5FF3374A400370580801305F5FF52
:101FF0001377F70F3374A400131777013364E400E9
:102000001315F6013365A4008320C1010324810167
:1020100083244101032901018329C100032A81008E
:10202000832A41001301010267800000130101FEB1
:10203000232A910023282101B70480001359750138
:1020400023263101232251019384F4FF232E110012
:10205000232C8100232441011379F90F938A050071
:10206000B3F4A4009359F501630A09089307F00F2C
:102070006306F90A93943400B7070004B3E4F4004C
:10208000130919F8130A000013D57A0137048000E8
:102090001304F4FF1375F50F3374540193DAFA0146
:1020A000630E05089307F00F630AF50A1314340052
:1020B000B70700043364F400130515F89306000015
:1020C00093172A00B3E7D7003305A9009387F7FFDA
:1020D0001307E00033C65901130815006360F70ABF
:1020E000171700001307472493972700B387E700CB
:1020F00083A70700B387E70067800700638A0402AD
:1021000013850400EF00D02F9307B5FF1309A0F843
:10211000B394F4003309A9406FF0DFF61309F00F10
:10212000130A2000E38204F6130A30006FF0DFF593
:1021300013090000130A10006FF01FF5630A040270
:1021400013050400EF00D02B9307B5FF3314F40000
:102150009307A0F83385A7406FF05FF61305F00FE3
:1021600093062000E30E04F4930630006FF05FF551
:1021700013050000930610006FF09FF4B7070100ED
:102180001383F7FF13D7040193560401B3F46400DB
:1021900033746400B3888402B30587023304D70222
:1021A000B386960293D40801B386B600B384D400F4
:1021B00063F4B4003304F400B3F7640093970701A9
:1021C000B3F86800B38717011397670093D404012D
:1021D0003337E00093D7A70133848400B367F70057
:1021E000131464003364F4009317440063DE070C97
:1021F000935714001374140033E487001307F8078F
:102200006358E00C93777400638A07009377F400B7
:10221000930640006384D7001304440093174400DE
:1022200063DA0700B70700F89387F7FF3374F40009
:10223000130708089307E00F63CCE70E93573400A9
:102240006F000003138609001384040093060A003C
:1022500093072000638EF60C930730006382F60C20
:10226000930510009307000013070000E398B6F8E9
:10227000370480001304F4FF37058080B3F787002C
:102280001305F5FF8320C101032481011377F70FA4
:10229000B3F7A700131777011315F601B3E7E700AB
:1022A00083244101032901018329C100032A8100FC
:1022B000832A410033E5A700130101026780000073
:1022C00013860A006FF0DFF8130805006FF01FF3A4
:1022D00093071000B387E7401307B0016340F70688
:1022E0001308E809B357F4003314040133348000B1
:1022F00033E4870093777400638A07009377F400D0
:10230000130740006384E70013044400931754004C
:1023100063CA070293573400130700006FF05FF59C
:10232000B70740001307F00F130600006FF05FF4CB
:10233000930700001307F00F6FF09FF3930700005F
:102340006FF09FFD93070000130710006FF05FF21E
:10235000B70780009387F7FF130101FF33F7A7004A
:102360009356750113D67501B3F7B7002322910078
:102370002320210193F6F60F131837001376F60F7A
:1023800023261100232481001307F00F9354F50135
:10239000138906001305060093D5F50193973700BE
:1023A0006314E6006394070093C515003387C640A5
:1023B000639A951A6356E00A63160606639C070043
:1023C0009307F00F638CF60493070800138506004B
:1023D0006F00C0141307F7FF631E0702B3870701DE
:1023E0001385060013975700635A0712130515004B
:1023F0001307F00F630EE5323707007E93F61700E0
:102400001307F7FF93D71700B3F7E700B3E7D70039
:102410006F00C0101306F00F639EC60093070800FC
:102420006F0040071306F00FE38AC6FE370600046C
:10243000B3E7C7001306B0016356E6009307100028
:102440006FF0DFF9130600023306E640B3D5E7006C
:10245000B397C700B337F000B3E7F5006FF01FF88C
:1024600063000708639C0602631808001307F00F57
:102470006316E60A6F0000029306F0FF6316D700AA
:10248000B38707016FF01FF69306F00F1347F7FFAE
:102490006310D6021305F00F6F0040089306F00F8B
:1024A000E30AD6FEB70600043307E0403368D800DD
:1024B0009306B00163D6E600130710006F00C00159
:1024C000930600023356E8003387E6403317E800EE
:1024D0003337E0003367E600B387E7006FF09FF023
:1024E000138516001376F50F130710006342C70615
:1024F0006394060413050000630208026386072242
:10250000B387070113975700635A0700370700FC8A
:102510001307F7FFB3F7E7001305100013F7770071
:10252000630A072013F7F700930640006304D720DF
:10253000938747006F000020E30E08F4E38007EE66
:10254000B70700021305F00F930400006F00801E10
:102550001307F00F630EE51C3307F80093571700BD
:102560006FF0DFFB6350E00863160604E38A07E4BC
:102570001307F7FF63140702B307F840138506003B
:1025800013975700E35C07F8370400041304F4FFC3
:1025900033F48700130905006F0080131306F00F52
:1025A000E38EC6E61306B0016350E60293071000FF
:1025B0006FF09FFC1306F00FE382C6E637060004B7
:1025C000B3E7C7006FF01FFE13060002B3D5E700A4
:1025D0003307E640B397E700B337F000B3E7F50001
:1025E0006FF09FF963020708639E060263180800F4
:1025F0001307F00F938405006FF09FE79306F0FF39
:102600006318D700B3870741938405006FF05FF725
:102610009306F00F1347F7FF6310D602938405006B
:102620006FF05FE79306F00FE30AD6FEB7060004EB
:102630003307E0403368D8009306B00163D6E60064
:10264000130710006F00C001930600023356E80024
:102650003387E6403317E8003337E0003367E6009E
:10266000B387E7406FF05FFA138716001377F70F11
:10267000130610006344E604639C06026318080016
:1026800063980712130500006FF01FEC63860712B2
:102690003307F84093165700B387074163CA061003
:1026A0009307070063100706930700006FF09FFD74
:1026B000E31608E8E39407F66FF09FE83304F84068
:1026C00013175400635407043384074193840500AF
:1026D00013050400EF00C0521305B5FF3314A40026
:1026E000634A25033305254113051500130700022E
:1026F000B357A4003305A7403314A400333480003B
:10270000B3E78700130500006FF05FE1E30E04F804
:102710006FF01FFCB70700FC9387F7FF3305A94054
:10272000B377F4006FF09FDF930708006FF01FDFAF
:102730009307000013975700635E07001305150009
:102740001307F00F630EE506370700FC1307F7FFCA
:10275000B3F7E7001307F00F93D737006318E500CE
:1027600063860700B7074000930400003707800026
:102770001307F7FF1375F50FB3F7E700131775018C
:10278000370580808320C100032481001305F5FFF5
:1027900033F5A7009394F4013365E50033659500A4
:1027A0000329010083244100130101016780000017
:1027B000938405006FF01FF5930708006FF09FF4F6
:1027C000930700006FF01FF937068000135775015B
:1027D0009307F6FF1377F70F9305E007B3F7A7000A
:1027E0009356F50163F6E5049305D00963FAE50015
:1027F000370500801345F5FF3385A600678000008C
:1028000033E5C7009307500963DCE7001307A7F619
:102810003315E500638006023305A04067800000A1
:10282000930760093387E7403355E5006FF09FFE5B
:102830001305000067800000130101FF232611002B
:102840002324810023229100630205101304050054
:102850009354F501635405003304A04013050400AC
:10286000EF00003A9307E009B387A7401307600918
:102870006340F706130780006356A700130585FF22
:102880003314A400370580001305F5FF93F7F70F05
:102890003374A40013957701B70780809387F7FFFF
:1028A0003374F400B70700803364A40093C7F7FFC4
:1028B0001395F4013374F4003365A4008320C10040
:1028C000032481008324410013010101678000007B
:1028D000130790096350F702130750003307A7400E
:1028E0009306B5013357E4003314D4003334800029
:1028F00033648700130750006356A7001307B5FF22
:102900003314E400370700FC1307F7FF93767400D5
:102910003377E400638A06001374F40093064000E2
:102920006304D400130747009316570063DC0600C6
:10293000B70700FC9387F7FF3377F7009307F00999
:10294000B387A740135437006FF0DFF31304000080
:1029500093070000930400006FF0DFF293577501B6
:10296000130101FF93F7F70F23248100138717004A
:1029700037048000232291001304F4FF2326110062
:102980001377F70F930610003374A4009354F501E6
:1029900063D2E60613850738935734001314D40125
:1029A000370710001307F7FFB3F7E700370710806A
:1029B0001307F7FF1375F57F13154501B3F7E7000C
:1029C00037070080B3E7A7001347F7FF1395F4011B
:1029D000B3F7E70033E7A7008320C1001305040025
:1029E00003248100832441009305070013010101A2
:1029F0006780000063940704630204061305040063
:102A0000EF0000209307A00063C2A7029307B00065
:102A1000B387A74013075501B357F4003314E400FC
:102A2000130790383305A7406FF09FF7930755FFC2
:102A3000B317F400130400006FF09FFE930700002B
:102A4000630A040093573400370708001314D401B5
:102A5000B3E7E7001305F07F6FF09FF493070000E2
:102A6000130500006FF0DFF3370610001306F6FFC2
:102A70003376B60013D845019357D5011378F87F04
:102A80001316360033E6C7009307180093F7F77F55
:102A90009306100093D5F5011317350063D6F60A97
:102AA000930608C89307E00F63C2D70C6340D008B1
:102AB000930790FE63C4F612B70780001305E00188
:102AC0003366F6003305D5409307F00163C8A702CB
:102AD000130828C8B3170701B337F00033160601EF
:102AE0003355A700B3E7C700B367F50093060000AE
:102AF00013F77700630007086F00C00E9307E0FF2D
:102B0000B386D74093070002B356D600930800005F
:102B10006306F500130828CAB3180601B3E7E800F6
:102B2000B337F000B3E7F6006FF05FFC13156500F4
:102B30003335A000131636009357D7013366C5000E
:102B4000B367F6006FF0DFFAB367E60063160800BC
:102B5000B337F0006FF09FF99306F00F638C070016
:102B600013163600B70700026FF09FFD93070000B1
:102B70009306F00F13975700635E070093861600C5
:102B80001307F00F638AE606370700FC1307F7FF09
:102B9000B3F7E7001307F00F93D737006398E60009
:102BA00063860700B70740009305000037058000E3
:102BB0001305F5FFB3F7A700370580801305F5FF70
:102BC00093F6F60F93967601B3F7A7009395F50168
:102BD000B3E7D70033E5B700678000009307100024
:102BE0009306000013F7F70013064000E304C7F84C
:102BF000938747006FF01FF8930700006FF09FF96D
:102C0000B7070100637AF5029307F00FB3B7A70087
:102C100093973700130700023307F740B357F500C7
:102C20001705000013050574B307F50003C5070079
:102C30003305A740678000003707000193070001B4
:0C2C4000E36AE5FC930780016FF0DFFC05
:102C4C00130101FE93078000130501002320F100FE
:102C5C0093075003232E11002326F1002322010099
:102C6C0023240100EFD00FB9EFD04FBAEFD04FBBF8
:102C7C00370702F09306F0FFB70701002322D704B1
:102C8C00938717002320F704EFD04FD98320C1017D
:0C2C9C0013050000130101026780000016
:102CA8004448525953544F4E452050524F47524171
:102CB8004D2C20534F4D4520535452494E47000048
:102CC8004468727973746F6E652042656E63686DCF
:102CD80061726B2C2056657273696F6E20322E31CB
:102CE80020284C616E67756167653A2043290000AA
:102CF80050726F6772616D20636F6D70696C656487
:102D0800207769746820277265676973746572270C
:102D180020617474726962757465000050726F671F
:102D280072616D20636F6D70696C6564207769747A
:102D3800686F7574202772656769737465722720D8
:102D4800617474726962757465000000506C656125
:102D58007365206769766520746865206E756D6295
:102D68006572206F662072756E73207468726F7555
:102D78006768207468652062656E63686D61726B50
:102D88003A200000457865637574696F6E20737426
:102D9800617274732C2025642072756E73207468B8
:102DA800726F756768204468727973746F6E650A0C
:102DB80000000000457865637574696F6E20656E64
:102DC8006473000046696E616C2076616C7565738A
:102DD800206F6620746865207661726961626C652F
:102DE80073207573656420696E2074686520626558
:102DF8006E63686D61726B3A00000000496E745F23
:102E0800476C6F623A20202020202020202020209C
:102E18002025640A000000002020202020202020F7
:102E280073686F756C642062653A20202025640AF7
:102E380000000000426F6F6C5F476C6F623A2020A1
:102E480020202020202020202025640A00000000C7
:102E580043685F315F476C6F623A20202020202052
:102E6800202020202025630A0000000020202020A8
:102E78002020202073686F756C642062653A2020DA
:102E88002025630A0000000043685F325F476C6FCB
:102E9800623A202020202020202020202025630A9C
:102EA800000000004172725F315F476C6F625B38EF
:102EB8005D3A2020202020202025640A0000000000
:102EC8004172725F325F476C6F625B385D5B375D82
:102ED8003A2020202025640A00000000202020201D
:102EE8002020202073686F756C642062653A20206A
:102EF800204E756D6265725F4F665F52756E732006
:102F08002B203130000000005074725F476C6F62F4
:102F18002D3E000020205074725F436F6D703A2080
:102F280020202020202020202025640A00000000E6
:102F3800202020202020202073686F756C64206278
:102F4800653A20202028696D706C656D656E746126
:102F580074696F6E2D646570656E64656E742900A2
:102F6800202044697363723A2020202020202020EA
:102F7800202020202025640A000000002020456E23
:102F8800756D5F436F6D703A20202020202020202F
:102F98002025640A000000002020496E745F436FFA
:102FA8006D703A2020202020202020202025640A2F
:102FB8000000000020205374725F436F6D703A2048
:102FC80020202020202020202025730A0000000037
:102FD800202020202020202073686F756C642062D8
:102FE800653A2020204448525953544F4E452050AA
:102FF800524F4752414D2C20534F4D452053545268
:10300800494E47004E6578745F5074725F476C6F25
:10301800622D3E00202020202020202073686F751C
:103028006C642062653A20202028696D706C656D9B
:10303800656E746174696F6E2D646570656E646524
:103048006E74292C2073616D652061732061626F35
:1030580076650000496E745F315F4C6F633A2020DB
:1030680020202020202020202025640A00000000A5
:10307800496E745F325F4C6F633A20202020202015
:10308800202020202025640A00000000496E745F7B
:10309800335F4C6F633A20202020202020202020FE
:1030A8002025640A00000000456E756D5F4C6F6353
:1030B8003A20202020202020202020202025640ABB
:1030C800000000005374725F315F4C6F633A202038
:1030D80020202020202020202025730A0000000026
:1030E800202020202020202073686F756C642062C7
:1030F800653A2020204448525953544F4E45205099
:10310800524F4752414D2C2031275354205354528B
:10311800494E47005374725F325F4C6F633A202008
:1031280020202020202020202025730A00000000D5
:10313800202020202020202073686F756C64206276
:10314800653A2020204448525953544F4E45205048
:10315800524F4752414D2C2032274E44205354524F
:10316800494E47004D656173757265642074696DD9
:103178006520746F6F20736D616C6C20746F206FA5
:10318800627461696E206D65616E696E6766756CE3
:1031980020726573756C747300000000506C656173
:1031A800736520696E637265617365206E756D6203
:1031B8006572206F662072756E730000436C6F63D2
:1031C8006B206379636C65733D2564200A000000F9
:1031D800444D49505320706572204D687A3A20203A
:1031E80020202020202020202020202020202020D7
:1031F8002020202020202020202020200000000047
:1032080025642E00256400004448525953544F4EFB
:10321800452050524F4752414D2C203127535420BE
:10322800535452494E4700004448525953544F4E44
:10323800452050524F4752414D2C2032274E4420B2
:10324800535452494E4700004448525953544F4E24
:10325800452050524F4752414D2C2033275244208D
:10326800535452494E47000080E4FFFF94E3FFFFA8
:10327800A0E3FFFF94E3FFFF6CE4FFFF94E3FFFF8D
:10328800A0E3FFFF80E4FFFF80E4FFFF6CE4FFFFA3
:10329800A0E3FFFF6CE3FFFF6CE3FFFF6CE3FFFFBE
:1032A800A8E3FFFF28E9FFFF28E9FFFF4CE9FFFF3C
:1032B8001CE9FFFF1CE9FFFF0CEAFFFF4CE9FFFFD9
:1032C8001CE9FFFF0CEAFFFF1CE9FFFF4CE9FFFFC9
:1032D80018E9FFFF18E9FFFF18E9FFFF0CEAFFFFF5
:1032E80034ECFFFF70ECFFFF7CECFFFF70ECFFFF9E
:1032F800E8ECFFFF70ECFFFF7CECFFFF34ECFFFF16
:1033080034ECFFFFE8ECFFFF7CECFFFF4CECFFFF29
:103318004CECFFFF4CECFFFF84ECFFFF2CEFFFFFB2
:103328002CEFFFFF9CEFFFFF24EFFFFF24EFFFFFD1
:10333800FCEFFFFF9CEFFFFF24EFFFFFFCEFFFFF19
:1033480024EFFFFF9CEFFFFF20EFFFFF20EFFFFFC1
:1033580020EFFFFFFCEFFFFF00010202030303035E
:10336800040404040404040405050505050505050D
:1033780005050505050505050606060606060606ED
:1033880006060606060606060606060606060606D5
:1033980006060606060606060707070707070707BD
:1033A80007070707070707070707070707070707A5
:1033B8000707070707070707070707070707070795
:1033C8000707070707070707070707070707070785
:1033D800070707070707070708080808080808086D
:1033E8000808080808080808080808080808080855
:1033F8000808080808080808080808080808080845
:103408000808080808080808080808080808080834
:103418000808080808080808080808080808080824
:103428000808080808080808080808080808080814
:103438000808080808080808080808080808080804
:1034480008080808080808080808080808080808F4
:0834580008080808080808082C
:103460000000000080842E41000000205FA0024286
:0C347000F90215503353DE470000C8423B
:0200000480007A
:100000006F00400B130000001300000013000000FD
:100010001300000013000000130000001300000094
:10002000232E11FE232C51FE232A61FE232871FE6C
:100030002326A1FE2324B1FE2322C1FE2320D1FECC
:10004000232EE1FC232CF1FC232A01FD232811FDA2
:100050002326C1FD2324D1FD2322E1FD2320F1FD30
:10006000130101FC970000C0E78080FD8320C103DD
:100070008322810303234103832301030325C10258
:100080008325810203264102832601020327C10141
:10009000832781010328410183280101032EC10028
:1000A000832E8100032F4100832F010013010104DF
:1000B00073002030974100C09381C1BA171100002E
:1000C000130141881385C181976500C09385C5FBE5
:1000D0006308B50023200500130545006FF05FFF9E
:1000E000173500C0130505381301C1FF973500C04F
:1000F00093854537630EB50083260500130545003B
:100100002320A100E7800600032501006FF01FFEF9
:1001100013014100371500001305058873104530A1
:10012000372500001305858073100530973000C017
:08013000E78000B26F0000003F
:040000058000000077
:00000001FF
