:0200000480007A
:100000006F00000B1300000013000000130000003D
:100010001300000013000000130000001300000094
:10002000232E11FE232C51FE232A61FE232871FE6C
:100030002326A1FE2324B1FE2322C1FE2320D1FECC
:10004000232EE1FC232CF1FC232A01FD232811FDA2
:100050002326C1FD2324D1FD2322E1FD2320F1FD30
:10006000130101FCEF0080108320C1038322810370
:1000700003234103832301030325C1028325810256
:1000800003264102832601020327C1018327810140
:100090000328410183280101032EC100832E810022
:1000A000032F4100832F010013010104730020304E
:1000B0009741000093818111177100001301819312
:1000C0001385C18197650000938585526308B5004B
:1000D00023200500130545006FF05FFF1745000062
:1000E0001305C58E1301C1FF974500009385058E4A
:1000F000630EB50083260500130545002320A100EB
:10010000E7800600032501006FF01FFE1301410088
:10011000371500001305058873104530372500009A
:100120001305858073100530EF3040086F00000024
:10013000B70701F01307300123A4E700130770008D
:1001400023A6E70067800000B70702F023AA070094
:100150001307F0FF23A8E70067800000B70702F04D
:1001600023A0070423A40704678000006780000021
:10017000B70702F003A587046780000003C7518317
:10018000930710046304F7006780000083270500CD
:1001900003A7C18393879700B387E7402320F50027
:1001A0006780000003A64184630806000327060059
:1001B0002320E50003A6418483A5C1831306C6005E
:1001C0001305A0006F005011130101FF232021012E
:1001D00083A74184232481000324050003A707008B
:1001E0002322910083AE470003AE870003A30701DB
:1001F00083A8470103A8870183A5070203A6470236
:1002000083A68702232611009304050003A5C701D6
:1002100083A7C7022320E40003A70400232EA40021
:100220002326F4022322D401930750002324C4017F
:1002300023286400232A1401232C04012320B40260
:100240002322C4022324D40223A6F4002326F4008C
:100250002320E40013050400EFF0DFF483274400BB
:100260006380070883A704008320C1000324810062
:1002700083AF070003AF470083AE870003AEC7001C
:1002800003A3070183A8470103A8870183A5C7012A
:1002900003A6070283A6470203A7870283A7C70214
:1002A00023A0F40123A2E40123A4D40123A6C401C2
:1002B00023A8640023AA140123AC040123AEB400D4
:1002C00023A0C40223A2D40223A4E40223A6F4029E
:1002D000032901008324410013010101678000000C
:1002E00003A5840093076000930584002326F4008F
:1002F000EF00501283A741840325C4001306C400F5
:1003000083A707008320C100832441002320F40039
:1003100003248100032901009305A00013010101BA
:100320006F00807B83C7518383A681839387F7FB0C
:1003300093B71700B3E7D70023ACF182130720046B
:10034000238AE1826780000013071004A38AE182F8
:1003500023AC018267800000130101F6130500033E
:10036000232E1108232C8108232C81072326B10773
:10037000232A91082328210923263109232441090E
:100380002322510923206109232E7107232A910773
:100390002328A107EF00902523A0A18413050003C3
:1003A000EF00D02483A7018423A2A1842320F50099
:1003B000930720002324F500B735008093078002BF
:1003C0002326F5001306F00193850521232205005D
:1003D00013050501EF0090393737008093078777C1
:1003E000032E877703A3470083A8870003A8C700CD
:1003F00083A5070103A6470183A6870103D7C70189
:1004000083C7E701B74D0080231EE102230FF102ED
:100410001387CDAD9307A0001305A000232EF7642A
:100420002320C10323226102232411032326010375
:100430002328B102232AC102232CD102EF00D00DC0
:100440003735008013050523EF00102E1305A0009B
:10045000EF00900C83A70183638C0762373500801F
:1004600013050526EF00502C1305A000EF00D00A5D
:10047000373500801305C52BEF00D0191305A000F8
:10048000EF009009373500809305800C1305452F48
:10049000EF005018EFF0DFCD3734008083278479E8
:1004A000373D0080832B8D7B2324F10023A6A1827E
:1004B000930910001304847993042000EFF0DFE81F
:1004C000EFF05FE68347E40103264401032E440076
:1004D000032384008328C4000328040183268401A5
:1004E0000357C401832E8100230FF10493050104F7
:1004F0009307100013050102232AC104232EF100E3
:10050000232A91002320D1052322C105232461043D
:100510002326110523280105232CD104231EE104E1
:10052000EF008068032641011335150023ACA1823A
:1005300063CAC40293172600B387C7009387D7FF07
:10054000130506009305300013068101232CF100EA
:10055000EF0080580326410113061600232AC1002C
:10056000E3DAC4FC832681011385C1849385CDAD74
:10057000EF00805703A54184930A1004130A30004A
:10058000EFF09FC403C7418393070004930C8D7B56
:1005900063F4E70213850A0093053004EF00C05EA0
:1005A0008327C10113871A00630EF54683C7418371
:1005B000937AF70FE3F057FF8325410113050A00F3
:1005C00093891900EF20502C832A81012326A10052
:1005D00093850A00EF20902D130A050013054101B1
:1005E000232A4101EFF09FB99307900CE398F9ECAF
:1005F000EFF01FB893054006EF20102923A4A18235
:1006000003A5C1829305400637340080EF20D02730
:1006100023A6A1823735008013054532EF00D010A4
:100620001305A000EF00406F3735008013054533F8
:10063000EF00900F1305A000EF00006E83A5C183AB
:10064000373500801305C536EF00C07C9305500098
:1006500013058438EF00007C83A581833735008043
:100660001305453AEF00007B93051000130584380D
:10067000EF00407A83C55183373500801305053C70
:10068000EF004079B7340080930510041385C43D12
:10069000EF00407883C54183373500801305853FDF
:1006A000EF004077930520041385C43DEF0080766A
:1006B0009387C18483A50702373500801305454120
:1006C000EF0040759305700013058438EF008074C7
:1006D000374700801307C7AD8325C76537350080CE
:1006E00013050543EF000073373500801305C5443B
:1006F000EF0090033735008013058547EF00D002E7
:1007000083A74184B73D008013854D4883A507002A
:10071000B73B0080373B0080EF00C06F373500806B
:100720001305054AEF00500083A7418413850B4D44
:10073000B739008083A5470037390080B73C008077
:10074000EF00406D9305000013058438EF00806CC6
:1007500083A741841305CB4E83A58700EF00806BF0
:100760009305200013058438EF00C06A83A74184F5
:100770001385895083A5C700EF00C0699305100158
:1007800013058438EF00006983A54184130549529D
:1007900093850501EF00006813850C54EF00C078C5
:1007A0003735008013054557EF00007883A7018493
:1007B00013854D4883A50700EF00C06537350080DD
:1007C00013054558EF00407683A7018413850B4D30
:1007D00083A54700EF0000649305000013058438EB
:1007E000EF00406383A701841305CB4E83A58700E8
:1007F000EF0040629305100013058438EF0080611C
:1008000083A701841385895083A5C700EF0080600A
:100810009305200113058438EF00C05F83A5018490
:100820001305495293850501EF00C05E13850C54F2
:10083000EF00806F83254101373500801305455C4B
:10084000EF00405D9305500013058438EF00805C95
:100850000327C100373500801305055EB30A5741F1
:1008600093973A00B38A5741B3854A41EF00805AC3
:100870009305D00013058438EF00C059832581010A
:10088000373500801305C55FEF00C0589305700031
:1008900013058438EF0000588325C10137350080E7
:1008A00013058561EF000057930510001305843888
:1008B000EF0040563735008093050102130545636C
:1008C000EF0040553735008013050565EF00C06522
:1008D000373500809305010413054568EF00805308
:1008E000373500801305056AEF0000641305A0008A
:1008F000EF00804203A7C18283A581829307301F46
:10090000B385E54023A2B18263D0B71A37350080A2
:100910001305C572EF00005003A54182EF20403A55
:1009200013040500EF20004CB747008003A6879C06
:1009300083A6C79CEF10C00AB747008003A6079D97
:1009400083A6479DEF00D008EF20805A23A0A18204
:10095000B747008003A5879D93050400EF104077FB
:1009600023AEA1803735008013050574EF00804A5F
:1009700003A54182EF20C034B747008093050500EE
:1009800003A5C79DEF10C07413040500EF20402C91
:1009900093040500EF20C032930505001305040001
:1009A000EF109063B747008083A5079EEF10D02B10
:1009B000EF20002A130405003735008093850400DA
:1009C00013050577EF0000459307900063D087106B
:1009D000373500809305040013054577EF00804309
:1009E0001305A000EF0040338320C10903248109CF
:1009F00083244109032901098329C108032A8108A5
:100A0000832A4108032B0108832BC107032C81078C
:100A1000832C4107032D0107832DC1061301010A11
:100A2000678000009305C10113050000EF00801EE0
:100A300003AE4C0003A38C0083A8CC0003A80C01D8
:100A400003A54C0183A58C0103D6CC0103C7EC019F
:100A500083C74183938A1A00232071052322C1058D
:100A6000232461042326110523280105232AA10438
:100A7000232CB104231EC104230FE10423AE3183D0
:100A800093FAFA0F138A0900E3F657B16FF0DFB259
:100A9000373500801305C528EF0000491305A00075
:100AA000EF0080276FF0DF9C373500801305456D20
:100AB000EF008047373500801305C570EF00C04652
:100AC0001305A000EF0040256FF01FF2130500038F
:100AD000EF0080246FF0DFEF13052500B305B500AC
:100AE0002320B60067800000130101FE2326310198
:100AF00093095600232A910093942900232C810006
:100B000023282101232E1100B304950013090600A8
:100B10001384050023AC340723A0D40023A2D400FF
:100B2000138509009305800CEF2000561319290046
:100B3000B3072501B307F40003A7070123AA370170
:100B400023AC37011307170023A8E70083A704008D
:100B50003304A40033042401371600003304860054
:100B6000232AF4FA8320C1010324810113075000D2
:100B700023AEE18283244101032901018329C100BD
:100B800013010102678000001375F50F93F5F50F4F
:100B90006306B5001305000067800000A38AA182E8
:100BA0001305100067800000130101FF232481005A
:100BB00023229100232611001304050093840500CD
:100BC00083C5340003452400EFF01FFCE31A05FE43
:100BD0009385040013050400EF00C047930700004D
:100BE0006358A0001307A00023AEE1829307100012
:100BF0008320C10003248100832441001385070062
:100C000013010101678000001305E5FF133515008E
:100C100067800000130101FF23248100232291003B
:100C2000232611001304050093840500EFF0DFFD77
:100C3000630E050223A08400930710006300F404F0
:100C40006304040413072000630CE40493074000CA
:100C50006314F40023A0E4008320C1000324810076
:100C600083244100130101016780000093073000D5
:100C700023A0F40093071000E314F4FC03A7C1833E
:100C80009307400663DAE7028320C1000324810052
:100C900023A00400832441001301010167800000A8
:100CA0008320C1000324810023A0F4008324410099
:100CB00013010101678000008320C100032481002B
:100CC0009307300023A0F4008324410013010101A5
:100CD00067800000B70701F003A547001355050121
:100CE0001375F50F67800000130101FF23248100B5
:100CF0002326110013040500EFF0DFFDE30E05FECF
:100D0000B70701F023A087008320C10003248100DE
:100D100013010101678000006FF01FFD130101FF47
:100D20002324810023261100130405000345050038
:100D3000630A050013041400EFF01FFE03450400CE
:100D4000E31A05FE8320C100032481001301010181
:100D5000678000001375F50F6FF01FFC130101FD94
:100D6000232291022326110223248102232021031E
:100D700093040500634405061309010013040900E8
:100D80006F004002EF20C03A9307050313041400DC
:100D9000138504009305A000A30FF4FEEF2000319B
:100DA000930405009305A00013850400E39C04FC54
:100DB000E30A24FD1304F4FF03450400EFF09FF958
:100DC000E31A24FF8320C102032481028324410209
:100DD0000329010213010103678000001305D002FB
:100DE000EFF05FF7B30490406FF01FF903A7818421
:100DF000B307A7003765008023A4F1841305C51E3F
:100E0000930600403305E50063D4F600730010003C
:100E100067800000130101FB232C410123261102EE
:100E2000232481022322910223202103232E310136
:100E3000232A5101130A0500034505002322F1046A
:100E400093074103232AB102232CC102232ED1028E
:100E50002320E10423240105232611052326F10084
:100E60006308050213040000930A5002930430063D
:100E70001309300793094006630E5503EFF09FED09
:100E800013041400B3078A0003C50700E31605FE28
:100E90008320C10203248102832441020329010229
:100EA0008329C101032A8101832A4101130101051C
:100EB00067800000930614003307DA006F0000011A
:100EC000638C2703638637059386160083470700E4
:100ED0001384060013071700E38407FAE39297FED2
:100EE0008327C10003A50700938747002326F1004D
:100EF000EFF05FE66FF0DFF88327C10003A507007E
:100F0000938747002326F100EFF05FE16FF05FF772
:100F10008327C10003A50700938747002326F1001C
:100F2000EFF0DFE36FF0DFF5130101FF2324810011
:100F3000232611001304050003450500630A05007C
:100F400013041400EFF05FDD03450400E31A05FE0F
:100F50001305A000EFF05FDC8320C10003248100B3
:100F6000130500001301010167800000B3C7A5004D
:100F700093F737003307C5006396070093073000E7
:100F800063E4C70293070500636CE5006780000017
:100F900083C605009387170093851500A38FD7FE9E
:100FA000E3E8E7FE67800000937735006392070867
:100FB000930705009376C7FF138606FE63F6C708FE
:100FC00083A3050083A2450083AF850003AFC5005E
:100FD00083AE050103AE450103A3850183A8C501C6
:100FE000938545029387470203A8C5FF23AE77FC8C
:100FF00023A057FE23A2F7FF23A4E7FF23A6D7FFD2
:1010000023A8C7FF23AA67FE23AC17FF23AE07FF61
:101010006FF0DFFA83C605009387170093851500EC
:10102000A38FD7FE93F63700E39606FE6FF09FF886
:10103000930705006FF01FFF03A605009387470085
:101040009385450023AEC7FEE3E8D7FEE3EAE7F465
:10105000678000003367B5009303F0FF1377370014
:1010600063100710B7877F7F9387F7F70326050084
:1010700083A60500B372F6003363F600B382F20074
:10108000B3E26200639272106316D608032645002D
:1010900083A64500B372F6003363F600B382F20014
:1010A000B3E26200639E720C6316D60603268500C7
:1010B00083A68500B372F6003363F600B382F200B4
:1010C000B3E262006398720C6316D6040326C5006F
:1010D00083A6C500B372F6003363F600B382F20054
:1010E000B3E262006392720C6316D6020326050116
:1010F00083A60501B372F6003363F600B382F200F3
:10110000B3E26200639C720A1305450193854501B1
:10111000E30ED6F41317060193970601631EF7003A
:101120001357060193D706013305F7409375F50F62
:1011300063900502678000001357070193D70701EA
:101140003305F7409375F50F639405006780000041
:101150001377F70F93F7F70F3305F7406780000019
:101160000346050083C60500130515009385150089
:101170006314D600E31606FE3305D64067800000F0
:101180001305450093854500E31CD6FC13050000BC
:10119000678000001305850093858500E312D6FC67
:1011A00013050000678000001305C5009385C50086
:1011B000E318D6FA13050000678000001305050147
:1011C00093850501E31ED6F8130500006780000033
:1011D000130101FB23248104232C41033704100055
:1011E00013DA450123202105232E3103232A51033D
:1011F000232481031304F4FF2326110423229104E2
:101200002328610323267103232291032320A103B2
:10121000232EB101137AFA7F13090500130C06007F
:10122000938A06003374B40093D9F50163060A0A61
:101230009307F07F6304FA1013143400B70780009B
:101240003364F400135BD501336B8B0093143500CA
:10125000130A1AC0930B000013D54A013709100076
:101260001309F9FF1375F57F3379590193050C00C4
:1012700093DAFA01630205109307F07F6302F51613
:101280003704800013193900336989001354DC01D5
:101290003364240193153C00130515C09307000027
:1012A00013972B003367F7001307F7FF9306E0004F
:1012B00033C95901330AAA4063E0E61697260000B5
:1012C0009386C651131727003307D700032707005B
:1012D0003307D70067000700336BA400630E0B06CB
:1012E0006300040413050400EF109067930755FF93
:1012F0001307C001634CF702130BD001930485FF61
:10130000330BFB4033149400335B6901336B8B0068
:10131000B3149900130AD0C0330AAA406FF09FF3A8
:10132000EF101064130505026FF05FFC130485FDD8
:10133000331B8900930400006FF0DFFD336BA400C2
:1013400063040B0293040500130B0400130AF07FDF
:10135000930B30006FF05FF093040000130A00005D
:10136000930B10006FF05FEF93040000130AF07FFF
:10137000930B20006FF05FEE33648901630E040667
:101380006300090413050900EF10905D930755FFF2
:101390001307C001634EF7021304D001930585FFC4
:1013A0003304F4403319B90033548C0033642401FE
:1013B000B315BC001307D0C03305A7406FF01FEE74
:1013C00013050C00EF10D059130505026FF01FFC38
:1013D000130485FD33148C00930500006FF09FFD0E
:1013E0003364890163020402130409001305F07FCA
:1013F000930730006FF0DFEA93050000130500004B
:10140000930710006FF0DFE9930500001305F07FEC
:10141000930720006FF0DFE86366640163128B4876
:1014200063E0B4489316FB0113D71400139CF40136
:10143000135B1B00B3E4E6001314840093DC850106
:10144000B3EC8C0093DA0C0193970C0193D707014E
:10145000139D850013050B0093850A002322F100DC
:10146000EF10504593050500930B050013950C01F3
:1014700013550501EF1050411304050093850A0030
:1014800013050B00EF1090471315050113D7040146
:101490003365A70093890B00637E850033059501B2
:1014A0009389FBFF63689501637685009389EBFF61
:1014B000330595013304854093850A001305040024
:1014C000EF10503F93050500930B050013950C0199
:1014D00013550501EF10503B130B050093850A00CF
:1014E00013050400EF109041939D040113150501AD
:1014F00093DD0D01B3EDAD0013870B0063FE6D01AD
:10150000B38D9D011387FBFF63E89D0163F66D01B9
:101510001387EBFFB38D9D0193960901B70401007A
:10152000B3E6E600B38D6D41138BF4FF33F766012C
:10153000337B6D011305070093050B0013D40601DF
:101540002326D1002324E100EF1010342322A10030
:1015500093050B0013050400EF101033935B0D018E
:101560009309050093850B0013050400EF10D0319B
:10157000032781001304050013850B009305070062
:10158000EF10903003264100330535018326C1005A
:10159000135706013307A70063743701330494001F
:1015A000370501001305F5FF93540701B379A70030
:1015B000939909013376A600B3848400B389C900E6
:1015C00063E89D001384060063949D0463723C05E8
:1015D000330CAC013337AC0133079701B38DED0009
:1015E0001384F6FF63E6BC016394BC036362AC033F
:1015F00063E69D00639EB401637C3C01330CAC0147
:101600003337AC01330797011384E6FFB38DED0048
:10161000B3093C41B3849D40B3373C01B384F440EB
:101620009305F0FF63889C1A93850A0013850400D4
:10163000EF105028930505002324A10013950C01F9
:1016400013550501EF1050242322A10093850A00B1
:1016500013850400EF10902A8326810003274100A0
:101660001315050193D7090133E5A700938D0600F3
:10167000637EE50033059501938DF6FF6368950160
:101680006376E500938DE6FF33059501B304E540ED
:1016900093850A0013850400EF10D02193050500FF
:1016A0002322A10013950C0113550501EF10D01D45
:1016B000130C050093850A0013850400EF10102415
:1016C00093990901032741001315050193D90901D5
:1016D00033E5A90093070700637E85013305950173
:1016E0009307F7FF63689501637685019307E7FF2A
:1016F0003305950193940D01B3E4F400939704012D
:1017000093D7070193050B00B309854113850700A3
:101710002322F10093DD0401EF10101793050B0055
:10172000930A050013850D00EF101016130C050029
:1017300093850D0013850B00EF10101583274100D2
:10174000130B050013850B0093850700EF10D013D2
:101750003305850193D70A013385A7006376850198
:10176000B7070100330BFB00B70601009386F6FFB5
:10177000935705013377D50013170701B3FADA0041
:10178000B38767013307570163E8F90093850400C5
:101790006390F9046300070433853C019385F4FFEB
:1017A000636495036366F5006314F5026370ED02EC
:1017B00093161D0033BDA601B30C9D019385E4FF74
:1017C00033059501138D06006314F5006304A7012A
:1017D00093E515001307FA3F6352E01293F7750083
:1017E0006380070293F7F50093064000638AD700F1
:1017F00093864500B3B5B6003304B4009385060064
:101800009317740063DA0700B70700FF9387F7FFA9
:101810003374F40013070A409307E07F63C2E71AAA
:101820009317D40193D53500B3E7B70013543400B0
:10183000B70610009386F6FF3374D400B706108005
:101840001377F77F9386F6FF131747013374D4009D
:101850001319F9013364E400336724018320C104C0
:101860000324810483244104032901048329C1033F
:10187000032A8103832A4103032B0103832BC10223
:10188000032C8102832C4102032D0102832DC1010F
:101890001385070093050700130101056780000009
:1018A000130AFAFF130C00006FF01FB91389090027
:1018B00013040B009385040093870B00130720008B
:1018C0006380E710130730006382E70E13071000F0
:1018D000E392E7F013040000930700006F00400953
:1018E00013890A006FF09FFD37040800930500007C
:1018F00013090000930730006FF05FFC930610009F
:10190000B386E64093078003E3C6D7FC9307F00154
:1019100063C4D706130AEA41B317440133D7D5008D
:10192000339A4501B3E7E700333A4001B3E7470193
:101930003354D40013F777006300070213F7F7005E
:1019400093064000630AD70013874700B337F700B8
:101950003304F4009307070013178400634A070653
:101960001317D40193D73700B367F700135434002B
:10197000130700006FF0DFEB930710FEB387E7401B
:1019800013070002B357F400130500006386E60056
:10199000130AEA4333154401336AB500333A400170
:1019A000B3E74701130400006FF0DFF837040800C5
:1019B000930700001307F07F130900006FF05FE743
:1019C00013040000930700001307F07F6FF05FE639
:1019D0001304000093070000130710006FF05FE589
:1019E000130101FA232C810423263105370410004A
:1019F00093D94501232A910423206105232E7103E5
:101A0000232C81031304F4FF232E11042328210522
:101A10002324410523225105232A91032328A103CE
:101A20002326B10393F9F97F93040500930B060075
:101A3000138C06003374B40013DBF5016388090AC4
:101A40009307F07F6386F910370980001314340080
:101A5000336424011359D50133698900131D3500FE
:101A6000938919C0930C000013554C01370A1000DC
:101A7000130AFAFF1375F57F337A8A0193840B00FA
:101A8000135CFC01630405109307F07F6304F516F3
:101A900037048000131A3A00336A8A0013D4DB013A
:101AA0003364440193943B00130515C09307000071
:101AB00013972C003367F700B389A9001307F7FFCA
:101AC0009306E000B34B8B01938A190063E0E6169E
:101AD00097260000938646D4131727003307D700B4
:101AE000032707003307D700670007003369A40006
:101AF000630E09066300040413050400EF1040663A
:101B0000930755FF1307C001634CF7021309D00177
:101B1000130D85FF3309F9403314A40133D924018F
:101B200033698900339DA4019309D0C0B389A940CA
:101B30006FF05FF3EF10C062130505026FF05FFCFA
:101B4000130985FD33992401130D00006FF0DFFDAB
:101B50003369A40063040902130D0500130904008E
:101B60009309F07F930C30006FF01FF0130D00000D
:101B700093090000930C10006FF01FEF130D00008D
:101B80009309F07F930C20006FF01FEE33647A010D
:101B9000630E040663000A0413050A00EF10405C9C
:101BA000930755FF1307C001634EF7021304D001DA
:101BB000930485FF3304F440331A9A0033D48B0026
:101BC00033644401B3949B009307D0C03385A7408E
:101BD0006FF0DFED13850B00EF1080581305050241
:101BE0006FF01FFC130485FD33948B0093040000F9
:101BF0006FF09FFD33647A016302040213040A004C
:101C00001305F07F930730006FF09FEA9304000004
:101C100013050000930710006FF09FE99304000084
:101C20001305F07F930720006FF09FE8370701004E
:101C3000130AF7FF135C0D0193DD0401337D4D01A1
:101C4000B3F4440193050D00138504002328E1003B
:101C5000EF108043930C05009385040013050C00DE
:101C6000EF1080422326A10093850D0013050C0080
:101C7000EF108041130B050093050D0013850D0037
:101C8000EF1080408326C10093D70C013305D500A7
:101C90003385A7006376D50003270101330BEB00E2
:101CA0009356050133754501B3FC4C01131505012D
:101CB000B3079501935C04013374440193050D004F
:101CC00013050400232AD1002326F100EF10C03BA6
:101CD0002328A1009305040013050C00EF10C03A5F
:101CE000130A050093850C0013050C00EF10C03992
:101CF000130C050093050D0013850C00EF10C03880
:101D0000032701013305450183264101935707014C
:101D10003385A70063764501B7070100330CFC004B
:101D20003706010093570501338C87019307F6FFAF
:101D3000337AF5003377F700131A0A01135D0901AE
:101D4000330AEA003379F900338746019305090025
:101D5000138504002328E100232EC100EF10C032B8
:101D600093850400232CA10013050D00EF10C03152
:101D7000232AA10093050D0013850D00EF10C0303C
:101D8000930405009305090013850D00EF10C02F83
:101D900083264101032781013305D50093570701AD
:101DA0003385A7006376D5000326C101B384C40040
:101DB000B70601009387F6FF935D0501B3849D008C
:101DC000B37DF5003377F700930509001305040090
:101DD000939D0D01B38DED00232CD100EF10C02A8F
:101DE00093050400232AA10013050D00EF10C0295C
:101DF00093050D001304050013850C00EF10C02897
:101E0000130D05009305090013850C00EF10C02782
:101E10000327410133058500935707013385A70048
:101E20006376850083268101330DDD008327010160
:101E3000B70601009386F6FF330BFB00B377D5009E
:101E40003377D70093970701B387E700333A4B0105
:101E5000B387870133844701330BBB0133079400F9
:101E6000B33DBB01B306B70133BC87013334440132
:101E7000935705013337970033648C00B3BDB60127
:101E80003304F400B36DB7013304B4013304A40187
:101E900093D77601131494003364F4008327C100B0
:101EA00093149B00135B7B01B3E4F400B334900004
:101EB00093979600B3E46401B3E4F40093177400BD
:101EC00063D2071293D7140093F41400B3E497007D
:101ED0009317F401B3E4F400135414001387FA3F8A
:101EE0006356E01093F774006380070293F7F400E1
:101EF00093064000638AD70093874400B3B49700E9
:101F000033049400938407009317740063DA070086
:101F1000B70700FF9387F7FF3374F40013870A4075
:101F20009307E07F63C6E71893DA34009314D40173
:101F3000B3E4540113543400B70710009387F7FF3C
:101F40003374F4009377F77F370710801307F7FF98
:101F5000939747013374E400939BFB013364F400CF
:101F6000B36774018320C105032481051385040030
:101F700003290105832441058329C104032A81041F
:101F8000832A4104032B0104832BC103032C810307
:101F9000832C4103032D0103832DC1029385070088
:101FA0001301010667800000930B0B001304090066
:101FB00093040D0093870C0013072000638AE70E3B
:101FC00013073000638CE70C13071000E398E7F069
:101FD00013040000930400006F008008930B0C00B2
:101FE0006FF09FFD938A09006FF05FEF930610007A
:101FF000B386E64093078003E3CCD7FC9307F00158
:1020000063C4D706938AEA41B317540133D7D40087
:10201000B3945401B3E7E700B3349000B3E49700FE
:102020003354D40093F774006380070293F7F400ED
:1020300013074000638AE70093874400B3B4970016
:1020400033049400938407009317840063CA07063F
:102050009317D40193D43400B3E49700135434009D
:10206000130700006FF05FED930710FEB387E740A2
:1020700013060002B357F400130700006386C6007E
:10208000938AEA4333175401B3649700B334900042
:10209000B3E49700130400006FF0DFF83704080082
:1020A000930400001307F07F930B00006FF0DFE84C
:1020B00013040000930400001307F07F6FF0DFE7C4
:1020C0001304000093040000130710006FF0DFE614
:1020D000130101FD23229102232A5101935475011A
:1020E000B70A80002320210323286101938AFAFF85
:1020F0002326110223248102232E3101232C4101A6
:10210000232671012324810193F4F40F138B05001E
:10211000B3FAAA001359F501638804089307F00F76
:102120006384F40A939A3A00B7070004B3EAFA000A
:10213000938414F8930B000013557B01370480003F
:102140001304F4FF1375F50F33746401135BFB0183
:10215000630C05089307F00F6308F50A13143400A5
:10216000B70700043364F400130515F89307000063
:1021700013972B003367F7001307F7FF9306E00070
:10218000B3496901338AA44063E0E60A9716000068
:102190009386466C131727003307D70003270700E1
:1021A0003307D70067000700638A0A0213850A0015
:1021B000EF00107B9307B5FF9304A0F8B39AFA00E1
:1021C000B384A4406FF01FF79304F00F930B20002B
:1021D000E3840AF6930B30006FF01FF693040000BF
:1021E000930B10006FF05FF5630A040213050400FF
:1021F000EF0010779307B5FF3314F4009307A0F8AE
:102200003385A7406FF09FF61305F00F930720006A
:10221000E30004F6930730006FF09FF5130500000C
:10222000930710006FF0DFF4131B540063F68A125B
:10223000130AFAFF13090000935B0B013704010036
:1022400093850B001304F4FF13850A00EF009066DA
:1022500033748B0093050500130C0500130504006F
:10226000EF0090629304050093850B0013850A002C
:10227000EF00D06813590901131505013365A90052
:1022800013090C00637E9500330565011309FCFFFB
:1022900063686501637695001309ECFF33056501FA
:1022A000B304954093850B0013850400EF00906004
:1022B00093050500130C050013050400EF00D05C26
:1022C000930A050093850B0013850400EF0010634B
:1022D0001315050113040C00637E550133056501D8
:1022E0001304FCFF63686501637655011304ECFF7A
:1022F0003305650113190901330555413369890017
:102300003335A0003364A9001307FA076350E00ACD
:1023100093777400638A07009377F4009306400074
:102320006384D700130444009317440063DA070062
:10233000B70700F89387F7FF3374F40013070A0810
:102340009307E00F1354340063D2E70C130400002A
:102350001307F00F6F00800B1399FA0193DA1A003C
:102360006FF09FED9309090013840A0093870B0017
:1023700013072000E38CE7FC130730006382E708B3
:1023800013071000E392E7F813040000130700009E
:102390006F00C00793090B006FF09FFD37044000EA
:1023A00093090000930730006FF09FFC9307100023
:1023B000B387E7401307B001E348F7FC1305EA09C8
:1023C000B357F4003314A4003334800033E487009F
:1023D00093777400638A07009377F4001307400033
:1023E0006384E7001304440093175400135434002B
:1023F000E3DE07F813040000130710006F0000016C
:10240000370440001307F00F9309000037058000E0
:102410001305F5FF3374A400370580801305F5FF1D
:102420001377F70F3374A400131777011395F9018D
:102430003364E4003365A4008320C10203248102D5
:1024400083244102032901028329C101032A810156
:10245000832A4101032B0101832BC100032C81003E
:102460001301010367800000130101FD2322910283
:1024700023202103B704800013597501232E310155
:10248000232671019384F4FF232611022324810261
:10249000232C4101232A5101232861012324810196
:1024A000232291011379F90F938B0500B3F4A40053
:1024B0009359F501630A09089307F00F6306F90AB7
:1024C00093943400B7070004B3E4F400130919F837
:1024D000130B000013D57B01370480001304F4FFB5
:1024E0001375F50F3374740193DBFB01630E05085C
:1024F0009307F00F630AF50A13143400B7070004BA
:102500003364F400130515F89306000093172B00AD
:10251000B3E7D7003309A9009387F7FF1307E0005B
:1025200033CA7901930A19006360F70A171700008C
:102530001307073693972700B387E70083A70700A1
:10254000B387E70067800700638A040213850400ED
:10255000EF0010419307B5FF1309A0F8B394F400FE
:102560003309A9406FF0DFF61309F00F130B2000B9
:10257000E38204F6130B30006FF0DFF5130900005F
:10258000130B10006FF01FF5630A0402130504001B
:10259000EF00103D9307B5FF3314F4009307A0F844
:1025A0003385A7406FF05FF61305F00F9306200008
:1025B000E30E04F4930630006FF05FF5130500009E
:1025C000930610006FF09FF4370C0100130BFCFF13
:1025D00093DB0401935C0401B3F46401337464017C
:1025E0009305040013850400EF00102A93050400EE
:1025F0009309050013850B00EF0010291304050053
:1026000093850C0013850B00EF001028930B050039
:102610009385040013850C00EF0010273305850017
:1026200093D709013385A70063748500B38B8B01B1
:10263000B377650193970701B3F96901B387370150
:10264000139467003334800093D7A7011355050115
:10265000B367F40033047501131464003364F400A9
:102660009317440063D6070E935714001374140095
:1026700033E487001387FA076350E00E9377740002
:10268000638A07009377F400930640006384D700C1
:10269000130444009317440063DA0700B70700F8F7
:1026A0009387F7FF3374F40013870A089307E00F4A
:1026B00063C4E710935734006F000003138A0900C6
:1026C0001384040093060B00930720006386F60E24
:1026D00093073000638AF60C13061000930700007E
:1026E00013070000E398C6F8370480001304F4FFD2
:1026F00037058080B3F787001305F5FF8320C102FB
:10270000032481021377F70FB3F7A700131777019C
:102710001315FA01B3E7E7008324410203290102FC
:102720008329C101032A8101832A4101032B01016D
:10273000832BC100032C8100832C410033E5A700CB
:102740001301010367800000138A0B006FF0DFF7AD
:10275000930A09006FF01FF293071000B387E74058
:102760001307B0016340F706938AEA09B357F400F0
:10277000331454013334800033E4870093777400BA
:10278000638A07009377F400130740006384E7002F
:10279000130444009317540063CA0702935734008C
:1027A000130700006FF05FF4B70740001307F00F46
:1027B000130A00006FF05FF3930700001307F00F98
:1027C0006FF09FF2930700006FF09FFD93070000EA
:1027D000130710006FF05FF1B70780009387F7FFD2
:1027E000130101FF33F7A7009356750113D6750146
:1027F000B3F7B700232291002320210193F6F60FAF
:10280000131837001376F60F2326110023248100B6
:102810001307F00F9354F501138906001305060002
:1028200093D5F501939737006314E600639407008E
:1028300093C515003387C640639A951A6356E00A1C
:1028400063160606639C07009307F00F638CF6047B
:1028500093070800138506006F00C0141307F7FFE5
:10286000631E0702B38707011385060013975700FD
:10287000635A0712130515001307F00F630EE532B4
:102880003707007E93F617001307F7FF93D717005B
:10289000B3F7E700B3E7D7006F00C0101306F00FDF
:1028A000639EC600930708006F0040071306F00FF1
:1028B000E38AC6FE37060004B3E7C7001306B0017B
:1028C0006356E600930710006FF0DFF9130600026D
:1028D0003306E640B3D5E700B397C700B337F0003F
:1028E000B3E7F5006FF01FF863000708639C06026A
:1028F000631808001307F00F6316E60A6F00000262
:102900009306F0FF6316D700B38707016FF01FF639
:102910009306F00F1347F7FF6310D6021305F00F6D
:102920006F0040089306F00FE30AD6FEB7060004D6
:102930003307E0403368D8009306B00163D6E60061
:10294000130710006F00C001930600023356E80021
:102950003387E6403317E8003337E0003367E6009B
:10296000B387E7006FF09FF0138516001376F50F1D
:10297000130710006342C7066394060413050000A2
:102980006302080263860722B38707011397570083
:10299000635A0700370700FC1307F7FFB3F7E70098
:1029A0001305100013F77700630A072013F7F700E9
:1029B000930640006304D720938747006F000020F0
:1029C000E30E08F4E38007EEB70700021305F00FEB
:1029D000930400006F00801E1307F00F630EE51CC8
:1029E0003307F800935717006FF0DFFB6350E008E0
:1029F00063160604E38A07E41307F7FF631407026C
:102A0000B307F8401385060013975700E35C07F8F7
:102A1000370400041304F4FF33F48700130905009E
:102A20006F0080131306F00FE38EC6E61306B001A5
:102A30006350E602930710006FF09FFC1306F00F3F
:102A4000E382C6E637060004B3E7C7006FF01FFE57
:102A500013060002B3D5E7003307E640B397E7005B
:102A6000B337F000B3E7F5006FF09FF96302070892
:102A7000639E0602631808001307F00F9384050095
:102A80006FF09FE79306F0FF6318D700B387074105
:102A9000938405006FF05FF79306F00F1347F7FF7D
:102AA0006310D602938405006FF05FE79306F00F82
:102AB000E30AD6FEB70600043307E0403368D800C7
:102AC0009306B00163D6E600130710006F00C00143
:102AD000930600023356E8003387E6403317E800D8
:102AE0003337E0003367E600B387E7406FF05FFA03
:102AF000138716001377F70F130610006344E604DC
:102B0000639C06026318080063980712130500000F
:102B10006FF01FEC638607123307F84093165700D7
:102B2000B387074163CA06109307070063100706BF
:102B3000930700006FF09FFDE31608E8E39407F6A3
:102B40006FF09FE83304F8401317540063540704F0
:102B5000338407419384050013050400EF004060AF
:102B60001305B5FF3314A400634A2503330525413B
:102B70001305150013070002B357A4003305A7403F
:102B80003314A40033348000B3E78700130500003A
:102B90006FF05FE1E30E04F86FF01FFCB70700FC75
:102BA0009387F7FF3305A940B377F4006FF09FDFF9
:102BB000930708006FF01FDF93070000139757007B
:102BC000635E0700130515001307F00F630EE5069B
:102BD000370700FC1307F7FFB3F7E7001307F00F01
:102BE00093D737006318E50063860700B7074000F6
:102BF00093040000370780001307F7FF1375F50FE4
:102C0000B3F7E70013177501370580808320C100F3
:102C1000032481001305F5FF33F5A7009394F40115
:102C20003365E500336595000329010083244100E5
:102C30001301010167800000938405006FF01FF508
:102C4000930708006FF09FF4930700006FF01FF9DF
:102C500037068000135775019307F6FF1377F70FB8
:102C60009305E007B3F7A7009356F50163F6E50473
:102C70009305D00963FAE500370500801345F5FF99
:102C80003385A6006780000033E5C700930750092D
:102C900063DCE7001307A7F63315E500638006023F
:102CA0003305A04067800000930760093387E74041
:102CB0003355E5006FF09FFE1305000067800000AC
:102CC000130101FF232611002324810023229100F8
:102CD00063020510130405009354F50163540500C5
:102CE0003304A04013050400EF0080479307E00978
:102CF000B387A740130760096340F70613078000F6
:102D00006356A700130585FF3314A4003705800020
:102D10001305F5FF93F7F70F3374A40013957701AC
:102D2000B70780809387F7FF3374F400B7070080FC
:102D30003364A40093C7F7FF1395F4013374F400D0
:102D40003365A4008320C100032481008324410053
:102D50001301010167800000130790096350F70217
:102D6000130750003307A7409306B5013357E4001B
:102D70003314D400333480003364870013075000C9
:102D80006356A7001307B5FF3314E400370700FCB0
:102D90001307F7FF937674003377E400638A060025
:102DA0001374F400930640006304D4001307470033
:102DB0009316570063DC0600B70700FC9387F7FF04
:102DC0003377F7009307F009B387A7401354370010
:102DD0006FF0DFF31304000093070000930400007A
:102DE0006FF0DFF293577501130101FF93F7F70FAF
:102DF00023248100138717003704800023229100C9
:102E00001304F4FF232611001377F70F9306100025
:102E10003374A4009354F50163D2E6061385073892
:102E2000935734001314D401370710001307F7FF2A
:102E3000B3F7E700370710801307F7FF1375F57F27
:102E400013154501B3F7E70037070080B3E7A70084
:102E50001347F7FF1395F401B3F7E70033E7A70033
:102E60008320C10013050400032481008324410052
:102E700093050700130101016780000063940704B4
:102E80006302040613050400EF00802D9307A000E1
:102E900063C2A7029307B000B387A7401307550189
:102EA000B357F4003314E400130790383305A740F8
:102EB0006FF09FF7930755FFB317F400130400005A
:102EC0006FF09FFE93070000630A040093573400DD
:102ED000370708001314D401B3E7E7001305F07FA8
:102EE0006FF09FF493070000130500006FF0DFF30D
:102EF000370610001306F6FF3376B60013D84501E7
:102F00009357D5011378F87F1316360033E6C700C0
:102F10009307180093F7F77F9306100093D5F501F8
:102F20001317350063D6F60A930608C89307E00F17
:102F300063C2D70C6340D008930790FE63C4F612B7
:102F4000B70780001305E0013366F6003305D5406E
:102F50009307F00163C8A702130828C8B317070135
:102F6000B337F000331606013355A700B3E7C700A7
:102F7000B367F5009306000013F7770063000708B6
:102F80006F00C00E9307E0FFB386D740930700029F
:102F9000B356D600930800006306F500130828CA4C
:102FA000B3180601B3E7E800B337F000B3E7F60063
:102FB0006FF05FFC131565003335A0001316360063
:102FC0009357D7013366C500B367F6006FF0DFFA99
:102FD000B367E60063160800B337F0006FF09FF99F
:102FE0009306F00F638C070013163600B707000234
:102FF0006FF09FFD930700009306F00F13975700A3
:10300000635E0700938616001307F00F638AE606D7
:10301000370700FC1307F7FFB3F7E7001307F00FBC
:1030200093D737006398E60063860700B707400030
:1030300093050000370580001305F5FFB3F7A700DF
:10304000370580801305F5FF93F6F60F939676010A
:10305000B3F7A7009395F501B3E7D70033E5B700C1
:1030600067800000930710009306000013F7F70035
:1030700013064000E304C7F8938747006FF01FF87A
:10308000930700006FF09FF9130605001305000079
:1030900093F61500638406003305C50093D515002B
:1030A00013161600E39605FE6780000063400506D0
:1030B00063C6050613860500930505001305F0FF9A
:1030C000630C060293061000637AB6006358C000D2
:1030D0001316160093961600E36AB6FE1305000059
:1030E00063E6C500B385C5403365D50093D61600A9
:1030F00013561600E39606FE6780000093820000D8
:10310000EFF05FFB13850500678002003305A040E8
:1031100063D80500B305B0406FF0DFF9B305B040E8
:1031200093820000EFF01FF93305A0406780020092
:103130009382000063CA0500634C0500EFF09FF71F
:103140001385050067800200B305B040E35805FE13
:103150003305A040EFF01FF63305B0406780020052
:10316000B7070100637AF5029307F00FB3B7A70022
:1031700093973700130700023307F740B357F50062
:103180001705000013058574B307F50003C5070094
:103190003305A7406780000037070001930700014F
:0C31A000E36AE5FC930780016FF0DFFCA0
:1031AC00130101FE93078000130501002320F10099
:1031BC0093073001232E11002326F1002322010056
:1031CC0023240100EFC01FF6EFC05FF7EFC05FF8DC
:1031DC00B70702F01307300623A0E7009306F0FFB1
:1031EC003707010023A2D7041307270023A0E70405
:1031FC00EFD0CF958320C10113050000130101020C
:04320C0067800000D7
:103210004448525953544F4E452050524F47524103
:103220004D2C20534F4D4520535452494E470000DA
:103230004468727973746F6E652042656E63686D61
:1032400061726B2C2056657273696F6E20322E315D
:1032500020284C616E67756167653A20432900003C
:1032600050726F6772616D20636F6D70696C656419
:10327000207769746820277265676973746572279F
:1032800020617474726962757465000050726F67B2
:1032900072616D20636F6D70696C6564207769740D
:1032A000686F75742027726567697374657227206B
:1032B000617474726962757465000000506C6561B8
:1032C0007365206769766520746865206E756D6228
:1032D0006572206F662072756E73207468726F75E8
:1032E0006768207468652062656E63686D61726BE3
:1032F0003A200000457865637574696F6E207374B9
:10330000617274732C2025642072756E732074684A
:10331000726F756768204468727973746F6E650A9E
:1033200000000000457865637574696F6E20656EF6
:103330006473000046696E616C2076616C7565731C
:10334000206F6620746865207661726961626C65C1
:1033500073207573656420696E20746865206265EA
:103360006E63686D61726B3A00000000496E745FB5
:10337000476C6F623A20202020202020202020202F
:103380002025640A0000000020202020202020208A
:1033900073686F756C642062653A20202025640A8A
:1033A00000000000426F6F6C5F476C6F623A202034
:1033B00020202020202020202025640A000000005A
:1033C00043685F315F476C6F623A202020202020E5
:1033D000202020202025630A00000000202020203B
:1033E0002020202073686F756C642062653A20206D
:1033F0002025630A0000000043685F325F476C6F5E
:10340000623A202020202020202020202025630A2E
:10341000000000004172725F315F476C6F625B3881
:103420005D3A2020202020202025640A0000000092
:103430004172725F325F476C6F625B385D5B375D14
:103440003A2020202025640A0000000020202020AF
:103450002020202073686F756C642062653A2020FC
:10346000204E756D6265725F4F665F52756E732098
:103470002B203130000000005074725F476C6F6287
:103480002D3E000020205074725F436F6D703A2013
:1034900020202020202020202025640A0000000079
:1034A000202020202020202073686F756C6420620B
:1034B000653A20202028696D706C656D656E7461B9
:1034C00074696F6E2D646570656E64656E74290035
:1034D000202044697363723A20202020202020207D
:1034E000202020202025640A000000002020456EB6
:1034F000756D5F436F6D703A2020202020202020C2
:103500002025640A000000002020496E745F436F8C
:103510006D703A2020202020202020202025640AC1
:103520000000000020205374725F436F6D703A20DA
:1035300020202020202020202025730A00000000C9
:10354000202020202020202073686F756C6420626A
:10355000653A2020204448525953544F4E4520503C
:10356000524F4752414D2C20534F4D4520535452FA
:10357000494E47004E6578745F5074725F476C6FB8
:10358000622D3E00202020202020202073686F75AF
:103590006C642062653A20202028696D706C656D2E
:1035A000656E746174696F6E2D646570656E6465B7
:1035B0006E74292C2073616D652061732061626FC8
:1035C00076650000496E745F315F4C6F633A20206E
:1035D00020202020202020202025640A0000000038
:1035E000496E745F325F4C6F633A202020202020A8
:1035F000202020202025640A00000000496E745F0E
:10360000335F4C6F633A2020202020202020202090
:103610002025640A00000000456E756D5F4C6F63E5
:103620003A20202020202020202020202025640A4D
:10363000000000005374725F315F4C6F633A2020CA
:1036400020202020202020202025730A00000000B8
:10365000202020202020202073686F756C64206259
:10366000653A2020204448525953544F4E4520502B
:10367000524F4752414D2C2031275354205354521E
:10368000494E47005374725F325F4C6F633A20209B
:1036900020202020202020202025730A0000000068
:1036A000202020202020202073686F756C64206209
:1036B000653A2020204448525953544F4E452050DB
:1036C000524F4752414D2C2032274E4420535452E2
:1036D000494E47004D656173757265642074696D6C
:1036E0006520746F6F20736D616C6C20746F206F38
:1036F000627461696E206D65616E696E6766756C76
:1037000020726573756C747300000000506C656105
:10371000736520696E637265617365206E756D6295
:103720006572206F662072756E730000436C6F6364
:103730006B206379636C65733D2564200A0000008B
:10374000444D49505320706572204D687A3A2020CC
:103750002020202020202020202020202020202069
:1037600020202020202020202020202000000000D9
:1037700025642E00256400004448525953544F4E8E
:10378000452050524F4752414D2C20312753542051
:10379000535452494E4700004448525953544F4ED7
:1037A000452050524F4752414D2C2032274E442045
:1037B000535452494E4700004448525953544F4EB7
:1037C000452050524F4752414D2C20332752442020
:1037D000535452494E470000E8E1FFFFFCE0FFFF71
:1037E00008E1FFFFFCE0FFFFD4E1FFFFFCE0FFFF8B
:1037F00008E1FFFFE8E1FFFFE8E1FFFFD4E1FFFFA1
:1038000008E1FFFFD4E0FFFFD4E0FFFFD4E0FFFFBB
:1038100010E1FFFFA4E7FFFFA4E7FFFFC8E7FFFFFA
:1038200098E7FFFF98E7FFFF88E8FFFFC8E7FFFF83
:1038300098E7FFFF88E8FFFF98E7FFFFC8E7FFFF73
:1038400094E7FFFF94E7FFFF94E7FFFF88E8FFFF9F
:10385000FCEAFFFF38EBFFFF44EBFFFF38EBFFFF15
:10386000B0EBFFFF38EBFFFF44EBFFFFFCEAFFFF8D
:10387000FCEAFFFFB0EBFFFF44EBFFFF14EBFFFFA1
:1038800014EBFFFF14EBFFFF4CEBFFFF3CEEFFFFE1
:103890003CEEFFFFBCEEFFFF34EEFFFF34EEFFFF18
:1038A0001CEFFFFFBCEEFFFF34EEFFFF1CEFFFFF3E
:1038B00034EEFFFFBCEEFFFF30EEFFFF30EEFFFF08
:1038C00030EEFFFF1CEFFFFF0001020203030303C2
:1038D00004040404040404040505050505050505A0
:1038E0000505050505050505060606060606060680
:1038F0000606060606060606060606060606060668
:10390000060606060606060607070707070707074F
:103910000707070707070707070707070707070737
:103920000707070707070707070707070707070727
:103930000707070707070707070707070707070717
:1039400007070707070707070808080808080808FF
:1039500008080808080808080808080808080808E7
:1039600008080808080808080808080808080808D7
:1039700008080808080808080808080808080808C7
:1039800008080808080808080808080808080808B7
:1039900008080808080808080808080808080808A7
:1039A0000808080808080808080808080808080897
:1039B0000808080808080808080808080808080887
:0839C0000808080808080808BF
:1039C8000000000080842E4100000000A3E1E141D6
:0C39D800180D0F4F3353DE470000C842AB
:040000058000000077
:00000001FF
