:0200000480007A
:10000000ADA8010001000100010001000100010094
:10001000232E11FE232C51FE232A61FE232871FE7C
:100020002326A1FE2324B1FE2322C1FE2320D1FEDC
:10003000232EE1FC232CF1FC232A01FD232811FDB2
:100040002326C1FD2324D1FD2322E1FD2320F1FD40
:100050003971AD28F250E2525253C2533255A25573
:10006000125682567247E2475248C248324EA24E5A
:10007000124F824F2161730020309731000093812D
:100080006106176100001301E1881385C18197554E
:100090000000938565476306B50023200500110520
:1000A000DDBF173500001305E5837111973500009A
:1000B000938545836308B500144111052AC08296D3
:0C00C0000245EDB71101EF20800401A003
:1000CC00828003C75183930710046303F700828077
:1000DC001C4103A7C183A507998F1CC1828003A66D
:1000EC00418409C6184218C103A6418483A5C18363
:1000FC00310629456F00806C41114AC083A74184A9
:10010C0022C40041984326C283AE470003AE870049
:10011C0003A3070183A8470103A887018C53D0537D
:10012C00945706C6AA84C84FDC5718C0984048CCD0
:10013C005CD42322D40195472324C40123286400D2
:10014C00232A1401232C04010CD050D014D4DCC469
:10015C005CC418C0228561375C40B1CF9C40B24072
:10016C00224483AF070003AF470083AE870003AE82
:10017C00C70003A3070183A8470103A88701CC4F3D
:10018C009053D4539857DC5723A0F40123A2E401D5
:10019C0023A4D40123A6C40123A8640023AA140118
:1001AC0023AC0401CCCC90D0D4D098D4DCD402496C
:1001BC0092444101828088449947930584005CC431
:1001CC00EF00E06983A7418448441306C4009C43B4
:1001DC00B24092441CC022440249A94541016F001F
:1001EC00E05D83C7518383A681839387F7FB93B725
:1001FC001700D58F23ACF18213072004238AE182E8
:10020C00828013071004A38AE18223AC01828280CE
:10021C0035711305000306CF22CDE6DAEED626CBD8
:10022C004AC94EC752C556C35AC1DEDEE2DCEAD813
:10023C00EF00407123A0A18413050003EF00807030
:10024C0083A7018423A2A1841CC189471CC5B7259F
:10025C000080930780025CC57D469385851223221E
:10026C0005004105EF00207E3727008093070769C2
:10027C00032E076903A3470083A8870003A8C700C0
:10028C008C4BD04B944F03D7C70183C7E701B73DC5
:10029C000080231EE102230FF10213874D9FA94713
:1002AC002945232EF76472D01AD246D442D62ED8C2
:1002BC0032DA36DCEF00E077372500801305851441
:1002CC00EF00C0742945EF00C07683A70183638ECD
:1002DC00074A3725008013058517EF002073294541
:1002EC00EF002075372500801305451DEF00A06732
:1002FC002945EF000074372500809305800C130509
:10030C00C520EF004066EF00607337240080832720
:10031C00046B372D0080032C0D6D3EC623A6A182E5
:10032C0085491304046B8944E93D653D8347E40129
:10033C005048032E4400032384008328C400032860
:10034C000401144C0357C401B24E230FF1048C006A
:10035C0085470810B2CA3ECE26CAF6C0F2C29AC46D
:10036C00C6C6C2C8B6CC231EE10455295246133565
:10037C00150023ACA18263C0C40293172600B29768
:10038C00F51732858D4530083ECC0D2952460506B1
:10039C0032CAE3D4C4FEE2461385C18493854D9FD3
:1003AC00152103A54184930A10040D4AB13303C7E8
:1003BC00418393070004130B0D6D63F1E70256851F
:1003CC00930530048921F24713871A006306F5362A
:1003DC0083C74183937AF70FE3F357FFD247624BFE
:1003EC004808330AFA028509B34A6A0356CAD13956
:1003FC009307900CE39AF9F2EF00406423A4A182D6
:10040C00372500801305C523EF0040602945EF0018
:10041C004062372500801305C524EF00205F294575
:10042C00EF00206183A5C183372500801305452883
:10043C00372400800D2B95451305042A2D2383A505
:10044C008183372500801305C52B312B854513057A
:10045C00042A112B83C55183372500801305852D64
:10046C001923B7240080930510041385442FE52924
:10047C0083C541833725008013050531ED21930594
:10048C0020041385442FC5219387C1848C533725B1
:10049C0000801305C532C1299D451305042AE121AD
:1004AC00B73700809387479F83A5C76537250080A2
:1004BC00130585344D293725008013054536EF008B
:1004CC00E0543725008013050539EF00205403A7AD
:1004DC004184B72700801385C7390C433EC6372D9E
:1004EC0000805121372500801305853B052303A788
:1004FC00418413058D3E372C00804C43B72B008074
:10050C00B72900808D2181451305042AA92903A749
:10051C00418413054C40372900800C47330A6A414B
:10052C00992189451305042A3D2903A74184138584
:10053C000B424C470D29C5451305042A2D2183A5D3
:10054C0041841385C943C1053929130589457D2982
:10055C00372500801305C548552903A70184B247E8
:10056C000C431385C7390121372500801305C54974
:10057C00712983A7018413058D3ECC43ED2681455B
:10058C001305042ACD2683A7018413054C408C4700
:10059C00D92E85451305042AF92683A701841385D2
:1005AC000B42CC47C926C9451305042A6D2E83A5D9
:1005BC0001841385C943C1057D2613058945B921DD
:1005CC00D245372500801305C54D712E9545130571
:1005DC00042A512E93173A00338A4741372500805D
:1005EC00B3055A411305854FBD2EB5451305042A95
:1005FC009D2EE2453725008013054551AD269D45BE
:10060C001305042A8D26F245372500801305055362
:10061C00992E85451305042AB926372500800C1020
:10062C001305C55489263725008013058556F92EE8
:10063C00372500808C001305C559352637250080D9
:10064C001305855BE1262945ED2603A7C18283A509
:10065C0081829307301F998D23A2B18263DFB71279
:10066C003725008013054564FD2C03A54182EF104E
:10067C0080792A84EF105006B737008003A6078EC6
:10068C0083A6478EEF00F02CB737008003A6878E29
:10069C0083A6C78EEF00E058EF10D00F23A0A182E5
:1006AC00B737008003A5078FA285EF00907023AEAB
:1006BC00A1803725008013058565752403A541822B
:1006CC00EF106074B7370080AA8503A5478FEF0041
:1006DC00506E2A84EF10206DAA84EF10C072AA8588
:1006EC002285EF100037B737008083A5878FEF1076
:1006FC004012EF10406B2A8437250080A685130525
:10070C0085689524A54763D7870A37250080A2857D
:10071C001305C568892C2945292EFA406A44DA4408
:10072C004A49BA492A4A9A4A0A4BF65B665CD65C35
:10073C00465DB65D0D6182806C0801450D22032378
:10074C004B0083288B000328CB0003250B0183254A
:10075C004B0103268B018356CB010347EB0183C767
:10076C004183850AE2C09AC2C6C4C2C6AAC8AECA30
:10077C00B2CC231ED104230FE10423AE318393FAB0
:10078C00FA0F4E8AE3FD57C391B937250080130544
:10079C00451AAD2C2945712CB1B6372500801305AF
:1007AC00C55EAD2437250080130545628524294597
:1007BC004924A5B713050003AD2C81BF0905AA95E3
:1007CC000CC28280130756001308800C33080703F1
:1007DC000A06931727003E9514C138DD54C1B307A0
:1007EC00C800AE97944BD8CB98CF1387160098CBF4
:1007FC001C41C295B2950566B29523AAF5FA154728
:10080C0023AEE18282801375F50F93F5F50F630427
:10081C00B50001458280A38AA182054582804111E1
:10082C0022C426C206C62A84AE8483C5340003457E
:10083C002400D13F7DF9A6852285E92481476356A2
:10084C00A000294723AEE1828547B240224492445E
:10085C003E85410182807915133515008280411146
:10086C0022C426C206C62A84AE84F53715C180C0C0
:10087C0085476304F40205C80947630DE4029147F8
:10088C006313F40098C0B240224492444101828028
:10089C008D479CC08547E310F4FE03A7C1839307E3
:1008AC00400663DFE700B240224423A004009244D8
:1008BC0041018280B24022449CC09244410182801A
:1008CC00B24022448D479CC0924441018280411128
:1008DC0022C406C62A840345050011C50504912AC5
:1008EC000345040065FDB24022444101828091A27F
:1008FC00797126D206D622D44AD0AA84634E050238
:10090C000A894A84294799E0631C2401B3E7E4026D
:10091C00050493870703B3C4E402A30FF4FEE5B701
:10092C007D1403450400E137E31C24FFB25022542C
:10093C0092540259456182801305D0024D3FB30495
:10094C0090407DBF03A78184B307A7003755008073
:10095C0023A4F18413054510930600403A9563D304
:10096C00F600029082805D7152CC06D622D426D23B
:10097C004AD04ECE56CA2A8A03450500BEC25C1820
:10098C002EDA32DC36DEBAC0C2C4C6C63EC61DC1C3
:10099C000144930A5002930430061309300793095B
:1009AC00400663025503A1370504B3078A0003C54B
:1009BC00070065F9B250225492540259F249624A26
:1009CC00D24A61618280930614003307DA0031A0A9
:1009DC0063822703638637038506834707003684C3
:1009EC000507F9D3E39697FEB247884391073EC6B5
:1009FC00FD3D5DBFB247884391073EC6C93D6DB70B
:100A0C00B247884391073EC6E53579BF411122C4F0
:100A1C0006C62A840345050011C50504192803459B
:100A2C00040065FD29453120B240224401454101B5
:100A3C008280B70710F023A0A7F08280B70710F0D0
:100A4C0003A507F18280B3C7A5008D8B3307C500C2
:100A5C0081E78D4763EFC700AA876369E500828051
:100A6C0083C6050085078505A38FD7FEE3EAE7FE5D
:100A7C00828093773500BDEBAA879376C7FF1386E8
:100A8C0006FE63FCC70683A3050083A2450083AF63
:100A9C00850003AFC50083AE050103AE450103A37A
:100AAC00850183A8C501938545029387470203A856
:100ABC00C5FF23AE77FC23A057FE23A2F7FF23A488
:100ACC00E7FF23A6D7FF23A8C7FF23AA67FE23AC03
:100ADC0017FF23AE07FF75B783C60500850785058D
:100AEC00A38FD7FE93F63700E5FA41BFAA87DDBF87
:100AFC0090419107910523AEC7FEE3EBD7FEE3E7E8
:100B0C00E7F682803367B500FD530D8B79E7B78725
:100B1C007F7F9387F7F710419441B372F6003363EC
:100B2C00F600BE92B3E262006397720C6318D606AD
:100B3C005041D441B372F6003363F600BE92B3E277
:100B4C0062006398720A631BD60410459445B37215
:100B5C00F6003363F600BE92B3E262006391720A50
:100B6C00631ED6025045D445B372F6003363F600CB
:100B7C00BE92B3E26200639A72086311D602104906
:100B8C009449B372F6003363F600BE92B3E262008E
:100B9C00639372085105D105E30FD6F613170601BE
:100BAC0093970601631CF7001357060193D70601B0
:100BBC003305F7409375F50F91E982804183C1832A
:100BCC003305F7409375F50F91E182801377F70F9A
:100BDC0093F7F70F3305F74082800346050083C671
:100BEC000500050585056313D60065FA3305D64067
:100BFC00828011059105E312D6FE01458280210504
:100C0C00A105E31CD6FC014582803105B105E31634
:100C1C00D6FC014582804105C105E310D6FC014597
:100C2C008280797122D426D25AC82A842A8BB7049E
:100C3C00100013D545014AD04ECE5EC6FD1406D623
:100C4C0052CC56CA1375F57FB28BB689ED8C13D97D
:100C5C00F50159C19307F07F630BF50C8E04B706B1
:100C6C008000D58C935ADB01B3EA9A0013143B0035
:100C7C00130A15C0014B13D54901B7041000FD141C
:100C8C001375F57FB3F43401DE8F93D9F90171C17B
:100C9C009307F07F6307F510B70780008E04DD8C97
:100CAC0093D7DB01C58F939F3B00130515C00147FC
:100CBC0093162B00D98EFD16B945334639013305F1
:100CCC00AA4063E1D510972500009385E5A18A061B
:100CDC00AE969442AE968286B3EA640163820A06AB
:100CEC009DC82685EF10203E930755FF7147634A38
:100CFC00F702F54A130485FFB38AFA40B3948400D3
:100D0C00B35A5B01B3EA9A0033148B00130AD0C0B8
:100D1C00330AAA4085B75A85EF10E03A130505024D
:100D2C00E1B7930485FDB31A9B000144C5B7B3EA40
:100D3C006401638B0A00A68A130AF07F0D4B25BF52
:100D4C000144014A054B05BF0144130AF07F094BCE
:100D5C001DB7B3E77401B1CF8DC82685EF10A0364F
:100D6C00130755FFF14763C8E702F547930F85FF5B
:100D7C00998FB394F401B3D7FB00C58FB39FFB01DC
:100D8C001306D0C03305A6401DB75E85EF10A03307
:100D9C0013050502F1B7930785FDB397FB00814F4F
:100DAC00C5B7B3E7740191CBA6871305F07F0D4748
:100DBC0001B7814F01450547E5BD814F1305F07F14
:100DCC000947FDB563E657016396FA2A6364F42B71
:100DDC009395FA01935614001317F40193DA1A0041
:100DEC0033E4D500A20713D88F013368F800935E63
:100DFC000801B3D5DA03131E0801135E0E019356D6
:100E0C00040193988F00B3F4DA03AE8FB307BE02DC
:100E1C00C204C58E63FCF600C296938FF5FF63E7A0
:100E2C00060163F5F600938FE5FFC2969D8E33D3D2
:100E3C00D60342044180B3F6D6039A87B3056E02FB
:100E4C00C206C18E63FCB600C2969307F3FF63E73C
:100E5C00060163F5B6009307E3FFC2963384B640F0
:100E6C00C20FC165B3EFFF001383F5FF93D60F01DB
:100E7C00B3F76F0013DF080133F36800B383670225
:100E8C00B3846602B307FF02B382E603B38697000E
:100E9C0093D70301B69763F39700AE9293D60701ED
:100EAC009696C162FD12B3F55700C205B3F3530019
:100EBC009E956367D400FE87631ED402637CB702E1
:100ECC004697B3321701C29216949387FFFF63665D
:100EDC00880063118802636F17016366D400639BFB
:100EEC0086006379B70046979387EFFFB33F1701EE
:100EFC00C29F7E94B305B740158C3337B700198C5D
:100F0C00FD5F6306880EB352D40393D60501337488
:100F1C00D4031687B30F5E024204558C637CF40134
:100F2C0042941387F2FF636704016375F40113871E
:100F3C00E2FF42943304F441B356D403C205C18199
:100F4C003374D403330EDE0242044D8CB685637CBD
:100F5C00C40142949385F6FF636704016375C40171
:100F6C009385E6FF42944207D98D1397050141837F
:100F7C003304C44113DE0501B30E670233036E0262
:100F8C00330ECF03330FEF0213D70E011A9F7A974C
:100F9C0063746700C166369E135307017293416EEA
:100FAC007D1EB376C701C206B3FECE01F69663660C
:100FBC006400AE8F631B64029DCA4294938FF5FF4D
:100FCC0063610403636664006311640263FDD8000B
:100FDC0013971800B33817014698938FE5FF429486
:100FEC00BA88631464006384160193EF1F009306A0
:100FFC00F53F635CD00A13F77F0001CF13F7FF00B6
:10100C0091456308B70093854F00B3BFF501FE9778
:10101C00AE8F1397770063580700370700FF7D17D3
:10102C00F98F930605401307E07F634BD710139796
:10103C00D70193DF3F003367F7018D83B7051000AD
:10104C00FD15ED8FB7051080FD1593F6F67FD206D2
:10105C00ED8FB25022547E06D58FB3E6C700925462
:10106C000259F249624AD24A424BB24B3A85B68592
:10107C00456182807D150147B5B34A86D687A28F1C
:10108C005A878946630ED70A8D466304D70A85466C
:10109C00E31FD7F481470147BDA04E86DDB7B707E4
:1010AC000800814F01460D47E9BF8545958D130713
:1010BC008003E341B7FE7D476349B7041305E5415F
:1010CC003397A700B3D6BF003395AF00558F333598
:1010DC00A000498FB3D7B7009376770081CE937673
:1010EC00F70091456388B6009306470033B7E600D6
:1010FC00BA9736879396870063C906049396D701EF
:10110C000D83558F8D83814615BF0557158F130899
:10111C00000233D7E7008146638605011305E543DA
:10112C00B396A70033E5F6013335A000498F81470C
:10113C0065B7B707080001479306F07F0146FDBD70
:10114C00814701479306F07FD5BD8147014785460E
:10115C00F5B579714AD056CA3709100093DA4501B2
:10116C004ECE52CC5AC85EC67D1906D622D426D293
:10117C0093FAFA7F2A8BB28B368A3379B90093D9DA
:10118C00F50163880A089307F07F638DFA0C370426
:10119C0080000E09336989001354D501336424018E
:1011AC0093143500938A1AC0014B13554A01370921
:1011BC0010007D191375F57F337949015E87135A39
:1011CC00FA0179C19307F07F630AF510B707800025
:1011DC000E093369F90093D7DB01B3E727011397A5
:1011EC003B00130515C0814693152B00D58D5695E4
:1011FC00FD15B94833C649011308150063E1B81051
:10120C0017150000130505528A05AA958C41AA955D
:10121C0082853364A90025C0630B09024A85EF005F
:10122C00906A930755FF71476348F702754493041E
:10123C0085FF1D8C3319990033548B0033642401C2
:10124C00B3149B00930AD0C0B38AAA40B1BFEF007D
:10125C00906713050502F1B7130485FD33148B0059
:10126C008144CDB73364A90019C8AA844A84930A6F
:10127C00F07F0D4B1DBF8144814A054B3DB7814426
:10128C00930AF07F094B15B7B3677901A5C3630BBC
:10129C0009024A85EF003063930655FFF14763C995
:1012AC00D702F547130785FF958F3319E900B3D79C
:1012BC00FB00B3E727013397EB009306D0C03385CF
:1012CC00A64015B75E85EF00106013050502E9B75F
:1012DC00930785FDB397FB000147C5B7B367790149
:1012EC0091CBCA871305F07F8D46FDBD01470145A3
:1012FC008546DDBD01471305F07F8946F5B5C16F05
:10130C00138FFFFF93D6040113530701B3F4E401C9
:10131C003377E701B3089302B3059702B382E60271
:10132C00338E580093D80501F298B38E660263F39E
:10133C005800FE9E13D90801B3F8E80193DF0701AA
:10134C00B3F5E501B3F3E701C208AE98B3877602B3
:10135C00B3859302B3849F02338EF40093D40501BA
:10136C00F294B386F60363F4F400C167BE9613DF00
:10137C000401C169369F9386F9FFF58CF58D93575F
:10138C000401C204758CAE94B30687022699338E81
:10139C00E702B30583023307F3023383C50193D508
:1013AC0006019A9563F3C5014E9713D30501C169E4
:1013BC00B302E3001387F9FFF98DF98E33838302AF
:1013CC00C205B6953387770233848F02338EFF02C2
:1013DC003A94935703013E946373E4004E9EC167A5
:1013EC00FD17B376F4003373F300C206CA9E9A96C7
:1013FC00B3B49E00FA96B3879600AE9EB3B5BE000A
:10140C0033835700B30FB300B3B6E601B3B79700FD
:10141C00D58F418033335300B3B5BF00A297B3656A
:10142C00B300AE97F29713D77F01A607D98F139706
:10143C009E00336717013337E00093DE7E019396ED
:10144C009F003367D701558F9396770063DE060AAA
:10145C0093561700058B558F9396F701558F8583FF
:10146C009305F83F6354B00A9376770081CE937658
:10147C00F70011456388A6009306470033B7E600D2
:10148C00BA9736879396770063D80600B70600FFA5
:10149C00FD16F58F930508409306E07F63C2B610E6
:1014AC00935637001397D701558F8D83B7061000CD
:1014BC00FD16F58F93F6F57FB7051080FD15D20656
:1014CC00ED8FB25022547E06D58FB3E6C7009254EE
:1014DC000259F249624AD24A424BB24B3A85B6851E
:1014EC00456182804E86A2872687DA868945638984
:1014FC00B60A8D45638FB6088545E393B6F68147EA
:10150C0001479DA05286DDB72A8899BF05450D8DF0
:10151C0093068003E3C5A6FEFD4663C9A604130823
:10152C00E841B3960701B355A70033170701CD8ED9
:10153C003337E000558FB3D7A7009376770081CE71
:10154C009376F70091456388B6009306470033B74E
:10155C00E600BA9736879396870063C8060493967D
:10156C00D7010D83558F8D83814589B785568D8E17
:10157C0093080002B3D6D700814563061501130802
:10158C00E843B39507014D8F3337E000558F814702
:10159C006DB7B707080001479305F07F014639B7CF
:1015AC00814701479305F07F11B781470147854576
:1015BC00F5BD011126CA4EC693547501B7098000BA
:1015CC004AC852C4FD1906CE22CC56C293F4F40F6D
:1015DC002E8AB3F9A9001359F501A5C89307F00F8A
:1015EC006382F4088E09B7070004B3E9F900938409
:1015FC0014F8814A13557A01370480007D14137551
:10160C00F50F33744401135AFA013DC59307F00FDB
:10161C006301F5080E04B70700045D8C130515F87B
:10162C00814793962A00DD8EFD16394733464901D2
:10163C003385A4406368D70697150000938545123F
:10164C008A06AE9698422E970287638409024E85CD
:10165C00EF0070279307B5FF9304A0F8B399F90036
:10166C00898C41BF9304F00F894AE38509F88D4AB0
:10167C0051B78144854ABDBF1DC02285EF00B024FF
:10168C009307B5FF3314F4009307A0F83385A740F4
:10169C0041BF1305F00F894749D48D4759B7014510
:1016AC00854741B71318540063FE890A7D1581469E
:1016BC001354080133D38902C167FD17B377F800BF
:1016CC00C18233F789029A85B38867024207558F26
:1016DC00637C170142979305F3FF636707016375FA
:1016EC0017019305E3FF429733071741B35887025D
:1016FC0033778702B386170393170701468763FC7A
:10170C00D700C2971387F8FF63E7070163F5D7008B
:10171C001387E8FFC29713940501958F598CB33743
:10172C00F0005D8C1307F5076359E006937774009E
:10173C0099C79377F40091466383D70011049317EC
:10174C00440063D80700B70700F8FD177D8C13071A
:10175C0005089307E00F0D8063D5E70801441307D4
:10176C00F00F41A09396F90193D9190091B74A86CD
:10177C004E84D6870947E383E7FE0D47638EE70463
:10178C000547E391E7FA01440147A1A85286DDB76A
:10179C003704400001468D47F1BF8547998F6D474F
:1017AC00E343F7FE1305E509B357F4003314A40023
:1017BC00333480005D8C9377740099C79377F40071
:1017CC0011476383E7001104931754000D80E3DD88
:1017DC0007FA0144054731A0370440001307F00F06
:1017EC000146370580007D15698C370580807D1595
:1017FC001377F70F698C5E07598C1315F601418D21
:10180C00F2406244D2444249B249224A924A0561AA
:10181C008280011126CA4AC8B70480001359750189
:10182C004EC656C2FD1406CE22CC52C41379F90F03
:10183C00AE8AE98C9359F501630909069307F00FF9
:10184C006302F9088E04B7070004DD8C130919F83C
:10185C00014A13D57A01370480007D141375F50FF6
:10186C003374540193DAFA013DC59307F00F630109
:10187C00F5080E04B70700045D8C130515F88146B6
:10188C0093172A00D58F4A95FD17394733C659014E
:10189C00130815006367F70617170000130707F006
:1018AC008A07BA979C43BA9782879DC02685EF001A
:1018BC0090019307B5FF1309A0F8B394F400330912
:1018CC00A94079B71309F00F094AC1D40D4A51B791
:1018DC000149054ABDBF1DC02285EF00C07E93079C
:1018EC00B5FF3314F4009307A0F83385A74041BF2C
:1018FC001305F00F894649D48D4659B701458546E5
:10190C0041B7C1671383F7FF13D704019356040142
:10191C00B3F4640033746400B3888402B3058702A3
:10192C003304D702B386960293D40801AE96B694CC
:10193C0063F3B4003E94B3F76400C207B3F86800D5
:10194C00C69713976700C1803337E000E98326946C
:10195C00D98F1A045D8C9317440063DC07089357E6
:10196C00140005885D8C1307F8076356E00893771D
:10197C00740099C79377F40091466383D7001104E0
:10198C009317440063D80700B70700F8FD177D8C48
:10199C00130708089307E00F63C4E70A9357340052
:1019AC0039A84E862684D2868947638BF6088D47E4
:1019BC006382F608854581470147E396B6FA3704FA
:1019CC0080007D1437058080E18F7D15F2406244E4
:1019DC001377F70FE98F5E071315F601D98FD244F1
:1019EC004249B249224A924A5D8D056182805686EF
:1019FC0065BF2A888DBF8547998F6D476346F7046D
:101A0C001308E809B357F40033140401333480008D
:101A1C005D8C9377740099C79377F40011476383B7
:101A2C00E70011049317540063C207029357340064
:101A3C00014771B7B70740001307F00F014641B7D4
:101A4C0081471307F00FA5BF8147DDB781470547D5
:101A5C00BDB7B7078000FD17411133F7A7009356A8
:101A6C00750113D67501ED8F26C24AC093F6F60F99
:101A7C00131837001376F60F06C622C41307F00F9F
:101A8C009354F50136893285FD818E076313E60088
:101A9C0099E393C515003387C64063979514635E2D
:101AAC00E00629E681EB9307F00F638FF602C287FD
:101ABC003685F5A87D170DE7C29736851397570025
:101ACC006357070E05051307F00F630CE526370760
:101ADC00007E93F617007D178583F98FD58FC1A8EB
:101AEC001306F00F639BC600C287A1A81306F00F64
:101AFC00E38CC6FE37060004D18F6D466354E600B6
:101B0C0085475DBF13060002198EB3D5E700B39766
:101B1C00C700B337F000CD8F45B73DC395E66317CB
:101B2C0008001307F00F6314E60821A8FD56631490
:101B3C00D700C29761B79306F00F1347F7FF631FE7
:101B4C00D6001305F00FA5A09306F00FE30BD6FEFD
:101B5C00B70600043307E0403368D800ED4663D481
:101B6C00E600054721A8930600023356E8003387A8
:101B7C00E6403317E8003337E000518FBA973DBF8A
:101B8C00138516001376F50F05476346C7049DEAC7
:101B9C000145630E08006384071AC2971397570018
:101BAC0063570700370700FC7D17F98F054513F7BE
:101BBC0077006309071813F7F70091466304D718E9
:101BCC00910749A2E30F08F685D3B7070002130566
:101BDC00F00F814485AA1307F00F6304E516330751
:101BEC00F80093571700E1B76351E0061DEAE38C48
:101BFC0007EA7D1711EFB307F840368513975700A6
:101C0C00E35707FA370400047D147D8C2A89C5A894
:101C1C001306F00FE38AC6EC6D46635CE60085475D
:101C2C00D9BF1306F00FE381C6EC37060004D18F41
:101C3C00E5B713060002B3D5E7003307E640B397C8
:101C4C00E700B337F000CD8F7DB73DC395E6631643
:101C5C0008001307F00FAE84F9B5FD566316D700D4
:101C6C00B3870741AE8459BF9306F00F1347F7FFB4
:101C7C00631ED600AE84F1B59306F00FE30CD6FECE
:101C8C00B70600043307E0403368D800ED4663D450
:101C9C00E600054721A8930600023356E800338777
:101CAC00E6403317E8003337E000518F998F5DBF62
:101CBC00138716001377F70F05466349E6029DE27A
:101CCC0063150800F9EB014529B7F1CB3307F84050
:101CDC0093165700B387074163C1060CBA8729E7EF
:101CEC008147D5B7E31208EED1F7C5B53304F840F8
:101CFC0013175400635C070233840741AE842285BA
:101D0C00D9266D153314A4006344250333052541EE
:101D1C00050513070002B357A4003305A74033147D
:101D2C00A40033348000C18F014551B555D8C1BFD3
:101D3C00B70700FCFD173305A940E18F8DBDC287A5
:101D4C00BDB5814713975700635B07000505130763
:101D5C00F00F6308E504370700FC7D17F98F1307B4
:101D6C00F00F8D836316E50081C7B70740008144EF
:101D7C00370780007D171375F50FF98F1317750151
:101D8C0037058080B24022447D157D8DFE04598D2F
:101D9C00458D0249924441018280AE8471B7C2875D
:101DAC0061B781476DBF37068000135775019307E4
:101DBC00F6FF1377F70F9305E007E98F9356F501BC
:101DCC0063F1E5049305D00963F8E500370500805D
:101DDC001345F5FF3695828033E5C700930750090C
:101DEC0063DAE7001307A7F63315E50081CE330558
:101DFC00A0408280930760093387E7403355E500A4
:101E0C00F5B701458280411106C622C426C269C1BC
:101E1C002A849354F501635405003304A0402285B1
:101E2C005D249307E009898F130760096342F70467
:101E3C0021476355A70061153314A40037058000B2
:101E4C007D1593F7F70F698C13957701B707808091
:101E5C00FD177D8CB7070080498C93C7F7FF13954E
:101E6C00F4017D8C418DB240224492444101828028
:101E7C0013079009635DF7001547098F9306B501A9
:101E8C003357E4003314D40033348000598C154795
:101E9C006356A7001307B5FF3314E400370700FCA3
:101EAC007D1793767400618F91C63D8891466303CC
:101EBC00D40011079316570063D90600B70700FC2E
:101ECC00FD177D8F9307F009898F13543700BDB729
:101EDC000144814781449DB793577501411193F794
:101EEC00F70F22C4138717003704800026C27D1415
:101EFC0006C61377F70F8546698C9354F50163D3A7
:101F0C00E60413850738935734007604370710001E
:101F1C007D17F98F370710807D171375F57F5205E4
:101F2C00F98F37070080C98F1347F7FF1395F4011A
:101F3C00F98F33E7A700B240228522449244BA8538
:101F4C004101828095EB21C42285B52AA94763CF34
:101F5C00A700AD47898F13075501B357F40033140D
:101F6C00E400130790383305A7404DB7930755FF8E
:101F7C00B317F4000144F5B7814719C493573400E3
:101F8C00370708007604D98F1305F07F41B78147D6
:101F9C000145ADBF370610007D166D8E13D8450177
:101FAC009357D5011378F87F0E065D8E93071800B2
:101FBC0093F7F77F8546FD811317350063D3F60839
:101FCC00930608C89307E00F63CBD7086342D0068B
:101FDC00A55763CFF60CB707800079455D8E158D3C
:101FEC00FD4763C3A702130828C8B3170701B3370B
:101FFC00F000331606013355A700D18FC98F8146E7
:10200C0013F7770025C37DA0F957B386D740930704
:10201C000002B356D60081486306F500130828CA9F
:10202C00B3180601B3E7E800B337F000D58FC1BF92
:10203C001A053335A0000E069357D701498ED18F60
:10204C00C1B7B367E60063150800B337F00045BFAE
:10205C009306F00F81CB0E06B7070002CDB7814770
:10206C009306F00F13975700635B07008506130761
:10207C00F00F6388E604370700FC7D17F98F130710
:10208C00F00F8D836396E60081C7B707400081454A
:10209C00370580007D15E98F370580807D1593F617
:1020AC00F60FDE06E98FFE05D58F33E5B70082808B
:1020BC008547814613F7F7001146E305C7FA9107E8
:1020CC0055B781476DBFC1676376F5029307F00F73
:1020DC00B3B7A7008E07130700021D8FB357F50087
:1020EC00170500001305456FAA9703C507003305B4
:1020FC00A740828037070001C147E36EE5FCE1474A
:02210C00D9BF39
:10210E00411106C6EFE0AF90B240B70710F023A022
:08211E0007F201454101828036
:102128004448525953544F4E452050524F475241FC
:102138004D2C20534F4D4520535452494E470000D3
:102148004468727973746F6E652042656E63686D5A
:1021580061726B2C2056657273696F6E20322E3156
:1021680020284C616E67756167653A204329000035
:1021780050726F6772616D20636F6D70696C656412
:102188002077697468202772656769737465722798
:1021980020617474726962757465000050726F67AB
:1021A80072616D20636F6D70696C65642077697406
:1021B800686F757420277265676973746572272064
:1021C800617474726962757465000000506C6561B1
:1021D8007365206769766520746865206E756D6221
:1021E8006572206F662072756E73207468726F75E1
:1021F8006768207468652062656E63686D61726BDC
:102208003A200000457865637574696F6E207374B1
:10221800617274732C2025642072756E7320746843
:10222800726F756768204468727973746F6E650A97
:1022380000000000457865637574696F6E20656EEF
:102248006473000046696E616C2076616C75657315
:10225800206F6620746865207661726961626C65BA
:1022680073207573656420696E20746865206265E3
:102278006E63686D61726B3A00000000496E745FAE
:10228800476C6F623A202020202020202020202028
:102298002025640A00000000202020202020202083
:1022A80073686F756C642062653A20202025640A83
:1022B80000000000426F6F6C5F476C6F623A20202D
:1022C80020202020202020202025640A0000000053
:1022D80043685F315F476C6F623A202020202020DE
:1022E800202020202025630A000000002020202034
:1022F8002020202073686F756C642062653A202066
:102308002025630A0000000043685F325F476C6F56
:10231800623A202020202020202020202025630A27
:10232800000000004172725F315F476C6F625B387A
:102338005D3A2020202020202025640A000000008B
:102348004172725F325F476C6F625B385D5B375D0D
:102358003A2020202025640A0000000020202020A8
:102368002020202073686F756C642062653A2020F5
:10237800204E756D6265725F4F665F52756E732091
:102388002B203130000000005074725F476C6F6280
:102398002D3E000020205074725F436F6D703A200C
:1023A80020202020202020202025640A0000000072
:1023B800202020202020202073686F756C64206204
:1023C800653A20202028696D706C656D656E7461B2
:1023D80074696F6E2D646570656E64656E7429002E
:1023E800202044697363723A202020202020202076
:1023F800202020202025640A000000002020456EAF
:10240800756D5F436F6D703A2020202020202020BA
:102418002025640A000000002020496E745F436F85
:102428006D703A2020202020202020202025640ABA
:102438000000000020205374725F436F6D703A20D3
:1024480020202020202020202025730A00000000C2
:10245800202020202020202073686F756C64206263
:10246800653A2020204448525953544F4E45205035
:10247800524F4752414D2C20534F4D4520535452F3
:10248800494E47004E6578745F5074725F476C6FB1
:10249800622D3E00202020202020202073686F75A8
:1024A8006C642062653A20202028696D706C656D27
:1024B800656E746174696F6E2D646570656E6465B0
:1024C8006E74292C2073616D652061732061626FC1
:1024D80076650000496E745F315F4C6F633A202067
:1024E80020202020202020202025640A0000000031
:1024F800496E745F325F4C6F633A202020202020A1
:10250800202020202025640A00000000496E745F06
:10251800335F4C6F633A2020202020202020202089
:102528002025640A00000000456E756D5F4C6F63DE
:102538003A20202020202020202020202025640A46
:10254800000000005374725F315F4C6F633A2020C3
:1025580020202020202020202025730A00000000B1
:10256800202020202020202073686F756C64206252
:10257800653A2020204448525953544F4E45205024
:10258800524F4752414D2C20312753542053545217
:10259800494E47005374725F325F4C6F633A202094
:1025A80020202020202020202025730A0000000061
:1025B800202020202020202073686F756C64206202
:1025C800653A2020204448525953544F4E452050D4
:1025D800524F4752414D2C2032274E4420535452DB
:1025E800494E47004D656173757265642074696D65
:1025F8006520746F6F20736D616C6C20746F206F31
:10260800627461696E206D65616E696E6766756C6E
:1026180020726573756C747300000000506C6561FE
:10262800736520696E637265617365206E756D628E
:102638006572206F662072756E730000436C6F635D
:102648006B206379636C65733D2564200A00000084
:10265800444D49505320706572204D687A3A2020C5
:102668002020202020202020202020202020202062
:1026780020202020202020202020202000000000D2
:1026880025642E00256400004448525953544F4E87
:10269800452050524F4752414D2C2031275354204A
:1026A800535452494E4700004448525953544F4ED0
:1026B800452050524F4752414D2C2032274E44203E
:1026C800535452494E4700004448525953544F4EB0
:1026D800452050524F4752414D2C20332752442019
:1026E800535452494E4700005CEAFFFFB0E9FFFF30
:1026F800B6E9FFFFB0E9FFFF4EEAFFFFB0E9FFFFD1
:10270800B6E9FFFF5CEAFFFF5CEAFFFF4EEAFFFF66
:10271800B6E9FFFF96E9FFFF96E9FFFF96E9FFFF9D
:10272800BAE9FFFFCCEDFFFFCCEDFFFFE4EDFFFFC3
:10273800C6EDFFFFC6EDFFFF72EEFFFFE4EDFFFF02
:10274800C6EDFFFF72EEFFFFC6EDFFFFE4EDFFFFF2
:10275800C4EDFFFFC4EDFFFFC4EDFFFF72EEFFFF06
:1027680000F0FFFF2AF0FFFF30F0FFFF2AF0FFFF25
:102778007CF0FFFF2AF0FFFF30F0FFFF00F0FFFFC3
:1027880000F0FFFF7CF0FFFF30F0FFFF12F0FFFFCB
:1027980012F0FFFF12F0FFFF34F0FFFF10F2FFFF0F
:1027A80010F2FFFF56F2FFFF0CF2FFFF0CF2FFFFE3
:1027B8009CF2FFFF56F2FFFF0CF2FFFF9CF2FFFFB7
:1027C8000CF2FFFF56F2FFFF0AF2FFFF0AF2FFFFCB
:1027D8000AF2FFFF9CF2FFFF00010202030303035A
:1027E8000404040404040404050505050505050599
:1027F8000505050505050505060606060606060679
:102808000606060606060606060606060606060660
:102818000606060606060606070707070707070748
:102828000707070707070707070707070707070730
:102838000707070707070707070707070707070720
:102848000707070707070707070707070707070710
:1028580007070707070707070808080808080808F8
:1028680008080808080808080808080808080808E0
:1028780008080808080808080808080808080808D0
:1028880008080808080808080808080808080808C0
:1028980008080808080808080808080808080808B0
:1028A80008080808080808080808080808080808A0
:1028B8000808080808080808080808080808080890
:1028C8000808080808080808080808080808080880
:0828D8000808080808080808B8
:1028E0000000000080842E41000000205FA0124202
:0C28F000F90295503353DE470000C84247
:040000058000000077
:00000001FF
