:0200000480007A
:100000006F00000B1300000013000000130000003D
:100010001300000013000000130000001300000094
:10002000232E11FE232C51FE232A61FE232871FE6C
:100030002326A1FE2324B1FE2322C1FE2320D1FECC
:10004000232EE1FC232CF1FC232A01FD232811FDA2
:100050002326C1FD2324D1FD2322E1FD2320F1FD30
:10006000130101FCEF00800C8320C1038322810374
:1000700003234103832301030325C1028325810256
:1000800003264102832601020327C1018327810140
:100090000328410183280101032EC100832E810022
:1000A000032F4100832F010013010104730020304E
:1000B000170100001301014E170500001305850C00
:1000C000970500009385850C6308B5002320050083
:1000D000130545006FF05FFF170500001305C50904
:1000E0001301C1FF9705000093850509630EB50054
:1000F00083260500130545002320A100E7800600A4
:10010000032501006FF01FFE1301410037150000A9
:1001100013050588731045303725000013058580C9
:0C01200073100530EF0040016F0000007C
:0C012C00678000001305200067800000C1
:1001380037070080B70600808327871703A646186D
:10014800B706008083A60618B387C700130500000A
:10015800B387D700B70610F023A0F6F083278717D8
:0C01680093871700232CF7166780000017
:0C0174000000000020000000000000005F
:040000058000000077
:00000001FF
